:020000040800F2
:100000000000022019240008E5230008E723000867
:10001000E9230008EB230008ED230008000000009E
:10002000000000000000000000000000EF230008B6
:10003000F123000800000000F3230008F523000866
:10004000692400086924000869240008692400085C
:10005000692400086924000869240008692400084C
:10006000692400086924000869240008692400083C
:10007000692400086924000869240008692400082C
:10008000692400086924000869240008692400081C
:10009000692400086924000869240008692400080C
:1000A00069240008692400086924000869240008FC
:1000B00069240008692400086924000869240008EC
:1000C00069240008692400086924000869240008DC
:1000D00069240008692400086924000869240008CC
:1000E00069240008692400086924000869240008BC
:1000F00069240008692400086924000869240008AC
:10010000692400086924000869240008692400089B
:10011000692400086924000869240008692400088B
:10012000692400086924000869240008692400087B
:10013000692400086924000869240008692400086B
:10014000692400086924000869240008692400085B
:10015000692400086924000869240008692400084B
:10016000692400086924000869240008692400083B
:1001700069240008692400086924000800000000C0
:0801800069240008692400084D
:1001880010B5054C237833B9044B13B10448AFF3C9
:1001980000800123237010BD0C0000200000000027
:1001A800C424000808B5034B1BB103490348AFF347
:1001B800008008BD0000000010000020C4240008D2
:1001C80081F0004102E000BF83F0004330B54FEA00
:1001D80041044FEA430594EA050F08BF90EA020F6D
:1001E8001FBF54EA000C55EA020C7FEA645C7FEA00
:1001F800655C00F0E2804FEA5454D4EB5555B8BF23
:100208006D420CDD2C4480EA020281EA030382EA93
:10021800000083EA010180EA020281EA0303362D25
:1002280088BF30BD11F0004F4FEA01314FF4801CF8
:100238004CEA113102D0404261EB410113F0004F0A
:100248004FEA03334CEA133302D0524263EB4303C1
:1002580094EA050F00F0A780A4F10104D5F1200E5F
:100268000DDB02FA0EFC22FA05F2801841F10001BA
:1002780003FA0EF2801843FA05F359410EE0A5F18E
:1002880020050EF1200E012A03FA0EFC28BF4CF0BF
:10029800020C43FA05F3C01851EBE37101F0004575
:1002A80007D54FF0000EDCF1000C7EEB00006EEB82
:1002B8000101B1F5801F1BD3B1F5001F0CD349080C
:1002C8005FEA30004FEA3C0C04F101044FEA445263
:1002D80012F5800F80F09A80BCF1004F08BF5FEAEA
:1002E800500C50F1000041EB045141EA050130BDCA
:1002F8005FEA4C0C404141EB010111F4801FA4F16D
:100308000104E9D191F0000F04BF01460020B1FAC1
:1003180081F308BF2033A3F10B03B3F120020CDAF9
:100328000C3208DD02F1140CC2F10C0201FA0CF0D7
:1003380021FA02F10CE002F11402D8BFC2F1200C3C
:1003480001FA02F120FA0CFCDCBF41EA0C019040F2
:10035800E41AA2BF01EB0451294330BD6FEA04043B
:100368001F3C1CDA0C340EDC04F11404C4F1200226
:1003780020FA04F001FA02F340EA030021FA04F338
:1003880045EA030130BDC4F10C04C4F1200220FA8F
:1003980002F001FA04F340EA0300294630BD21FACD
:1003A80004F0294630BD94F0000F83F4801306BF93
:1003B80081F480110134013D4EE77FEA645C18BF87
:1003C8007FEA655C29D094EA050F08BF90EA020F1E
:1003D80005D054EA000C04BF1946104630BD91EA16
:1003E800030F1EBF0021002030BD5FEA545C05D119
:1003F8004000494128BF41F0004130BD14F5800458
:100408003CBF01F5801130BD01F0004545F0FE41CB
:1004180041F470014FF0000030BD7FEA645C1ABF00
:10042800194610467FEA655C1CBF0B46024650EA37
:10043800013406BF52EA033591EA030F41F4002163
:1004480030BD00BF90F0000F04BF0021704730B5E9
:100458004FF4806404F132044FF000054FF00001BE
:1004680050E700BF90F0000F04BF0021704730B57F
:100478004FF4806404F1320410F0004548BF404254
:100488004FF000013EE700BF42004FEAE2014FEAA9
:1004980031014FEA02701FBF12F07F4393F07F4F84
:1004A80081F06051704732F07F4208BF704793F087
:1004B8007F4F04BF41F40021704730B54FF460749A
:1004C80001F0004521F000411CE700BF50EA01029D
:1004D80008BF704730B54FF000050AE050EA010246
:1004E80008BF704730B511F0004502D5404261EBB6
:1004F80041014FF4806404F132045FEA915C3FF4F7
:10050800D8AE4FF003025FEADC0C18BF03325FEA93
:10051800DC0C18BF033202EBDC02C2F1200300FA44
:1005280003FC20FA02F001FA03FE40EA0E0021FA69
:1005380002F11444BDE600BF70B54FF0FF0C4CF457
:10054800E06C1CEA11541DBF1CEA135594EA0C0F09
:1005580095EA0C0F00F0DEF82C4481EA030621EA44
:100568004C5123EA4C5350EA013518BF52EA03357F
:1005780041F4801143F4801338D0A0FB02CE4FF031
:100588000005E1FB02E506F00042E0FB03E54FF061
:100598000006E1FB03569CF0000F18BF4EF0010E59
:1005A800A4F1FF04B6F5007F64F5407404D25FEA55
:1005B8004E0E6D4146EB060642EAC62141EA555108
:1005C8004FEAC52040EA5E504FEACE2EB4F1FD0C4A
:1005D80088BFBCF5E06F1ED8BEF1004F08BF5FEAC8
:1005E800500E50F1000041EB045170BD06F000467A
:1005F80046EA010140EA020081EA0301B4EB5C0427
:10060800C2BFD4EB0C0541EA045170BD41F480111E
:100618004FF0000E013C00F3AB8014F1360FDEBF43
:10062800002001F0004170BDC4F10004203C35DA1F
:100638000C341BDC04F11404C4F1200500FA05F3A2
:1006480020FA04F001FA05F240EA020001F0004243
:1006580021F0004110EBD37021FA04F642EB0601B9
:100668005EEA430E08BF20EAD37070BDC4F10C04E3
:10067800C4F1200500FA04F320FA05F001FA04F2A7
:1006880040EA020001F0004110EBD37041F1000193
:100698005EEA430E08BF20EAD37070BDC4F120059E
:1006A80000FA05F24EEA020E20FA04F301FA05F206
:1006B80043EA020321FA04F001F0004121FA04F2AE
:1006C80020EA020000EBD3705EEA430E08BF20EA7E
:1006D800D37070BD94F0000F0FD101F000464000B8
:1006E80041EB010111F4801F08BF013CF7D041EA3A
:1006F800060195F0000F18BF704703F0004652003E
:1007080043EB030313F4801F08BF013DF7D043EA0E
:100718000603704794EA0C0F0CEA135518BF95EAC4
:100728000C0F0CD050EA410618BF52EA4306D1D14B
:1007380081EA030101F000414FF0000070BD50EA6A
:10074800410606BF1046194652EA430619D094EAF4
:100758000C0F02D150EA013613D195EA0C0F05D1DE
:1007680052EA03361CBF104619460AD181EA030132
:1007780001F0004141F0FE4141F470014FF00000EA
:1007880070BD41F0FE4141F4780170BD70B54FF085
:10079800FF0C4CF4E06C1CEA11541DBF1CEA135505
:1007A80094EA0C0F95EA0C0F00F0A7F8A4EB0504E7
:1007B80081EA030E52EA03354FEA013100F08880DE
:1007C8004FEA03334FF0805545EA131343EA1263A7
:1007D8004FEA022245EA111545EA10654FEA00265C
:1007E8000EF000419D4208BF964244F1FD0404F515
:1007F800407402D25B084FEA3202B61A65EB030571
:100808005B084FEA32024FF480104FF4002CB6EB2D
:10081800020E75EB030E22BFB61A754640EA0C00AD
:100828005B084FEA3202B6EB020E75EB030E22BFED
:10083800B61A754640EA5C005B084FEA3202B6EB2E
:10084800020E75EB030E22BFB61A754640EA9C00ED
:100858005B084FEA3202B6EB020E75EB030E22BFBD
:10086800B61A754640EADC0055EA060E18D04FEA7B
:10087800051545EA16754FEA06164FEAC30343EA1B
:1008880052734FEAC2025FEA1C1CC0D111F4801FE8
:100898000BD141EA00014FF000004FF0004CB6E7E1
:1008A80011F4801F04BF01430020B4F1FD0C88BF80
:1008B800BCF5E06F3FF6AFAEB5EB030C04BFB6EB8B
:1008C800020C5FEA500C50F1000041EB045170BD7E
:1008D8000EF0004E4EEA113114EB5C04C2BFD4EBAB
:1008E8000C0541EA045170BD41F480114FF0000E2F
:1008F800013C90E645EA060E8DE60CEA135594EAAB
:100908000C0F08BF95EA0C0F3FF43BAF94EA0C0FAD
:100918000AD150EA01347FF434AF95EA0C0F7FF422
:1009280025AF104619462CE795EA0C0F06D152EA76
:1009380003353FF4FDAE1046194622E750EA41065A
:1009480018BF52EA43067FF4C5AE50EA41047FF46B
:100958000DAF52EA43057FF4EBAE12E74FEA4102CE
:1009680012F5001215D211D56FF47873B3EB6252F9
:1009780012D94FEAC12343F0004343EA505311F020
:10098800004F23FA02F018BF404270474FF00000B2
:10099800704750EA013005D111F0004008BF6FF0F0
:1009A800004070474FF00000704700BF53B94AB984
:1009B800002908BF00281CBF4FF0FF314FF0FF305F
:1009C80000F072B9ADF1080C6DE904CE00F006F83C
:1009D800DDF804E0DDE9022304B070472DE9F047B3
:1009E800089E04468846002B4BD18A42154667D993
:1009F800B2FA82F24AB1C2F1200701FA02F320FAF0
:100A080007F7954047EA030894404FEA154E230C30
:100A1800B8FBFEF71FFA85FC0EFB178843EA08436C
:100A280007FB0CF1994209D9EB1807F1FF3080F068
:100A38001B81994240F21881023F2B445B1AA4B2F1
:100A4800B3FBFEF00EFB103344EA034400FB0CFC3E
:100A5800A44509D92C1900F1FF3380F00781A4457A
:100A680040F2048102382C4440EA0740A4EB0C040D
:100A780000271EB1D4400023C6E900433946BDE82B
:100A8800F0878B4209D9002E00F0EB800027C6E9D9
:100A9800000138463946BDE8F087B3FA83F7002FDE
:100AA80047D18B4202D3824200F2FA80841A61EB6A
:100AB800030301209846002EE0D0C6E90048DDE790
:100AC80002B9FFDEB2FA82F2002A40F08F80491B99
:100AD8004FEA154E1FFA85F80127B1FBFEFC230CDF
:100AE8000EFB1C1143EA014308FB0CF1994207D99C
:100AF800EB180CF1FF3002D2994200F2CD80844607
:100B0800591AA3B2B1FBFEF00EFB101443EA0444D9
:100B180008FB00F8A04507D92C1900F1FF3302D2D1
:100B2800A04500F2B6801846A4EB080440EA0C4041
:100B38009FE7C7F1200CBB4022FA0CFE4EEA030ED9
:100B480001FA07F420FA0CF521FA0CF34FEA1E48D3
:100B58002543B3FBF8F92C0C08FB19331FFA8EFA5E
:100B680044EA034309FB0AF49C4202FA07F200FA3A
:100B780007F10BD91EEB030309F1FF3080F08780E2
:100B88009C4240F28480A9F1020973441B1BADB258
:100B9800B3FBF8F008FB103345EA034400FB0AFAFC
:100BA800A24508D91EEB040400F1FF336BD2A2451D
:100BB80069D90238744440EA0940A0FB0289A4EBD1
:100BC8000A044C45C2464B4654D351D0002E69D036
:100BD800B1EB0A0564EB030404FA0CFCFD40FC408D
:100BE8004CEA0505C6E90054002747E7C2F120038F
:100BF80020FA03F7954001FA02F021FA03F34FEACD
:100C0800154E3843010CB3FBFEF71FFA85F80EFBAF
:100C1800173341EA034107FB08F38B4204FA02F455
:100C280007D9691807F1FF3C2FD28B422DD9023F13
:100C38002944CB1A81B2B3FBFEF00EFB103341EA14
:100C4800034100FB08F38B4207D9691800F1FF3C08
:100C580017D28B4215D902382944C91A40EA0747E6
:100C68003BE73746304609E70746E7E61846FBE61E
:100C78004145ABD2B8EB020A69EB0E0201381346C4
:100C8800A4E76046E9E7184695E76746D1E7814655
:100C98007CE702382C4447E7ACF1020C2B442FE7E1
:100CA800384608E73746E9E6704700BF10B50446FE
:100CB8000E4B18784FF47A73B3FBF0F30C4A1068B4
:100CC800B0FBF3F000F0BAF868B90F2C01D9012095
:100CD8000AE0002221464FF0FF3000F069F8034B8C
:100CE8005C60002000E0012010BD00BF0000002073
:100CF8000800002008B50B4B1A6842F400721A600D
:100D08001A6842F480621A601A6842F480721A60A3
:100D1800032000F02FF80020FFF7C8FF01F042FB86
:100D2800002008BD003C0240034A1168034B1B78B1
:100D38000B441360704700BF28000020000000200B
:100D4800014B1868704700BF2800002038B50446DA
:100D5800FFF7F6FF0546B4F1FF3F02D0044B1B78BE
:100D68001C44FFF7EDFF401BA042FAD338BD00BF7B
:100D78000000002010B50446C31E042B0FD80A4AF1
:100D8800D36823F4E0631B041B0C240204F4E0641E
:100D9800234343F0BF6343F40033D36010BD922173
:100DA800024801F0FDFAEAE700ED00E0F42400084B
:100DB80070B505460C4616460F2A25D80F2C28D89C
:100DC8001B4BDB68C3F30223C3F10702042A28BFC5
:100DD8000422191D062921D9033B4FF0FF3101FADE
:100DE80002F224EA02049C4001FA03F326EA03060D
:100DF8003443002D14DB2401E4B205F1604505F508
:100E0800614585F8004370BDAA210A4801F0C8FA77
:100E1800D4E7AB21074801F0C3FAD1E70023DCE7A8
:100E280005F00F052401E4B2034B5C55EBE700BF66
:100E380000ED00E0F424000814ED00E00138B0F102
:100E4800807F0AD2064B5860064AF02182F82310A8
:100E58000020986007221A6070470120704700BF81
:100E680010E000E000ED00E02DE9F04383B080469B
:100E78000E46B44B984223D003F5806398421FD0A6
:100E880003F5806398421BD003F58063984217D01E
:100E980003F58063984213D003F5806398420FD01E
:100EA80003F5806398420BD003F58063984207D01E
:100EB80003F58063984203D0B321A34801F070FA88
:100EC80033689AB212B11B0C1B041BB1B4219E48A3
:100ED80001F066FA7368012B1ED9112B1CD0022B66
:100EE8001AD0122B18D0994A934215D002F58012C5
:100EF800934211D002F5801293420DD0A2F5F81258
:100F0800934209D002F58012934205D002F580126F
:100F1800934201D0032B04D1B368022B06D80024D6
:100F280045E0B521884801F03BFAF5E7B621864847
:100F380001F036FAF3E7C821834801F031FA4AE0B4
:100F4800072300E000238B4003430232804941F825
:100F58002230804B1A68FB4303EA0201706810F4E0
:100F6800803F01D047EA02017A4A1160526803EAD9
:100F78000201706810F4003F01D047EA0201754A87
:100F88005160926803EA0201706810F4801F01D072
:100F980047EA02016F4A9160D2681340716811F400
:100FA800001F01D047EA02036A4AD36001340F2CBC
:100FB80000F2C5800125A54037682F40BD42F5D114
:100FC80073685A1E012A03D9112B01D0122B19D18B
:100FD800F368032BAFD8D8F80820610003238B40AF
:100FE80022EA0302F3688B401343C8F80830D8F8A4
:100FF800042022EA05027368C3F30015A5401543CF
:10100800C8F80450D8F80C204FEA4409032505FA1B
:1010180009F5ED432A40B36803FA09F31343C8F806
:101028000C307368022B01D0122B31D13369FBB11C
:10103800092B1DD0012B1BD0022B19D0032B17D045
:10104800042B15D0052B13D0062B11D0072B0FD04E
:10105800082B0DD00A2B0BD00B2B09D00C2B07D04B
:101068000D2B05D00F2B03D0E021374801F098F95C
:10107800E208083258F8220004F0070399000F2309
:101088008B4020EA030033698B40034348F8223041
:10109800D8F800301D40736803F0030303FA09F31E
:1010A8001D43C8F80050736813F0805F3FF47EAFAB
:1010B80000230193284B5A6C42F480425A645B6CBB
:1010C80003F480430193019BA208911C204B53F821
:1010D800210004F0030399000F238B4020EA03004A
:1010E800184B98453FF42EAF03F5806398451AD006
:1010F80003F58063984518D003F58063984516D0AA
:1011080003F58063984514D003F58063984512D0A1
:1011180003F58063984510D003F5806398453FF444
:101128000FAF08230FE701230DE702230BE7032383
:1011380009E7042307E7052305E7062303E703B0C8
:10114800BDE8F083000002403025000800001110BF
:1011580000380140003C01400038024038B50546DF
:101168000C4621B12B691C4207D1002038BD4FF431
:10117800BF71034801F014F9F4E70120F6E700BF56
:101188003025000870B5064615460C4629B1012DD4
:1011980009D875B92404B46170BD40F29F1106489E
:1011A80001F0FEF8F3E74FF4D071034801F0F8F8C6
:1011B800EFE7B461F0E700BF30250008002800F031
:1011C800648270B582B0044603680F2B39D823684F
:1011D80013F0010F4DD063682BB1B3F5803F02D0F7
:1011E800B3F5A02F32D1A54B9B6803F00C03042B59
:1011F80036D0A24B9B6803F00C03082B2BD06368F6
:10120800B3F5803F5FD0B3F5A02F62D09B4B1A682F
:1012180022F480321A601A6822F480221A60636805
:10122800002B60D0FFF78CFD0546944B1B6813F428
:10123800003F1ED1FFF784FD401B6428F5D9032029
:1012480028E2E8218E4801F0ABF8C0E7ED218C4890
:1012580001F0A6F8C7E7894B5B6813F4800FCED07E
:10126800864B1B6813F4003F03D06368002B00F023
:101278000E82236813F0020F67D0E368012B41D870
:1012880023691F2B44D87D4B9B6813F00C0F4AD061
:101298007A4B9B6803F00C03082B3FD0E368002BC4
:1012A80077D0784B01221A60FFF74AFD0546734B49
:1012B8001B6813F0020F63D1FFF742FD401B0228A1
:1012C800F5D90320E6E16D4A136843F480331360CF
:1012D800A5E76A4B1A6842F480221A601A6842F439
:1012E80080321A609BE7FFF72BFD0546634B1B68AE
:1012F80013F4003FBDD0FFF723FD401B6428F5D948
:101308000320C7E140F21F115D4801F049F8B7E733
:101318004FF490715A4801F043F8B4E7574B5B68B3
:1013280013F4800FBAD1554B1B6813F0020F04D089
:10133800E368012B01D00120ACE1504A136823F087
:10134800F803216943EAC1031360236813F0080F07
:1013580049D06369012B2ED8636993B34A4B0122A4
:101368001A60FFF7EDFC0546444B5B6F13F0020F64
:1013780039D1FFF7E5FC401B0228F5D9032089E1A4
:101388003E4A136823F0F803216943EAC103136056
:10139800DBE73C4B00221A60FFF7D2FC0546374BCF
:1013A8001B6813F0020FD0D0FFF7CAFC401B0228BD
:1013B800F5D903206EE14FF4B071314800F0F0FF29
:1013C800CAE7314B00221A60FFF7BAFC05462B4BDF
:1013D8005B6F13F0020F06D0FFF7B2FC401B022828
:1013E800F5D9032056E1236813F0040F00F0878035
:1013F800A368012B01D9052B38D1204B1B6C13F0A6
:10140800805F39D1002301931C4B1A6C42F0805243
:101418001A641B6C03F080530193019B01251B4B3D
:101428001B6813F4807F33D0A368012B44D0052BAD
:1014380048D0124B1A6F22F001021A671A6F22F075
:1014480004021A67A368002B46D0FFF779FC06460A
:101458000A4B1B6F13F0020F4FD1FFF771FC801B73
:1014680041F288339842F3D9032013E14FF4C6714F
:10147800034800F095FFC0E70025D0E70038024098
:101488006C25000800004742800E4742007000406B
:10149800834A136843F480731360FFF751FC0646D0
:1014A8007F4B1B6813F4807FBED1FFF749FC801B7C
:1014B8000228F5D90320EDE07A4A136F43F00103BF
:1014C8001367BFE7774B1A6F42F004021A671A6F67
:1014D80042F001021A67B5E7FFF732FC0646714B86
:1014E8001B6F13F0020F08D0FFF72AFC801B41F294
:1014F80088339842F3D90320CCE0002D3BD1A3696F
:10150800022B3ED8A369002B00F0C380654A92687D
:1015180002F00C02082A00F09080022B79D1E369CE
:1015280013B1B3F5800F32D1236A3F2B35D8636AE4
:10153800323BB3F5BF7F36D8A36A022B05D0042B04
:1015480003D0062B01D0082B33D1E36A023B0D2BC5
:1015580035D8554B00221A60FFF7F2FB0546514B70
:101568001B6813F0007F30D0FFF7EAFB401B02280E
:10157800F5D903208EE04B4A136C23F08053136493
:10158800BDE740F2CF11494800F00AFFBAE74FF42F
:10159800EC71464800F004FFC6E740F2D911434811
:1015A80000F0FEFEC3E74FF4ED71404800F0F8FE8E
:1015B800C2E740F2DB113D4800F0F2FEC5E74FF408
:1015C800EE713A4800F0ECFEC3E7E369226A134380
:1015D800626A43EA8213A26A5208013A43EA024362
:1015E800E26A43EA02632F4A53602F4B01221A60D2
:1015F800FFF7A6FB04462B4B1B6813F0007F06D1B0
:10160800FFF79EFB001B0228F5D9032042E00020CB
:1016180040E0254B00221A60FFF792FB0446214B5D
:101628001B6813F0007F06D0FFF78AFB001B022817
:10163800F5D903202EE000202CE0012B2CD0194BEB
:101648009B6803F48001E269914201D0012021E006
:1016580003F03F02216A8A4201D001201AE0616A40
:1016680047F6C0721A408A4201D0012012E003F402
:101678004032A16A8A4201D001200BE003F0706376
:10168800E26A93420AD0012004E001207047012059
:1016980000E0002002B070BD0120FBE70020F9E760
:1016A8000070004000380240600047426C25000886
:1016B800324B9B6803F00C03042B5CD0082B01D041
:1016C8002F4870472DE9F04B2C4B5A6802F03F0227
:1016D8005B6813F4800F2BD0284B5B68C3F3881327
:1016E8001E4600275C010025E41A65EB0705A901E1
:1016F80041EA9461A001001B61EB0501CB0043EABC
:101708005073C400A01943EB07014B0243EAD053BE
:101718004402204619460023FFF748F9174B5B6837
:10172800C3F3014301335B00B0FBF3F0BDE8F08B7A
:10173800124B5B68C3F388131E4600275C01002523
:10174800E41A65EB0705A90141EA9461A001001BB1
:1017580061EB0501CB0043EA5073C400A01943EBC9
:1017680007018B0243EA905384022046194600235E
:10177800FFF71CF9D2E70348704700BF0038024062
:101788000024F40000127A00002800F0FA8070B5F6
:1017980004460D460368013B0E2B11D8072D15D8BA
:1017A8007A4B1B6803F00F03AB4215D2EBB2774AB2
:1017B8001370136803F00F03AB420DD0012070BD06
:1017C80040F25121724800F0EBFDE7E740F2522168
:1017D8006F4800F0E5FDE3E7236813F0020F29D016
:1017E80013F0040F04D06B4A936843F4E0539360FA
:1017F800236813F0080F04D0664A936843F46043E3
:101808009360A3687BB1802B0DD0902B0BD0A02BBD
:1018180009D0B02B07D0C02B05D0D02B03D0E02B9C
:1018280001D0F02B33D15B4A936823F0F003A16811
:101838000B439360236813F0010F42D06368032BB6
:101848002BD86368012B2ED09A1E012A32D9514A0F
:10185800126812F0020F00F096804E498A6822F052
:10186800030213438B60FFF76BFA0646494B9B68EC
:1018780003F00C036268B3EB820F22D0FFF760FA23
:10188800801B41F288339842F0D9032097E740F251
:1018980075213F4800F084FDC5E74FF41F713C48AF
:1018A80000F07EFDCDE73B4A126812F4003FD4D128
:1018B800012084E7374A126812F0007FCDD1012059
:1018C8007DE7324B1B6803F00F03AB4209D9EAB23C
:1018D8002E4B1A701B6803F00F03AB4201D0012096
:1018E8006DE7236813F0040F14D0E3685BB1B3F518
:1018F800805F08D0B3F5A05F05D0B3F5C05F02D014
:10190800B3F5E05F31D1234A936823F4E053E168EB
:101918000B439360236813F0080F15D023695BB15C
:10192800B3F5805F08D0B3F5A05F05D0B3F5C05F0D
:1019380002D0B3F5E05F1ED1164A936823F46043E2
:10194800216943EAC1039360FFF7B2FE114B9B681C
:10195800C3F30313104AD35CD840104B1860104BE4
:101968001868FFF7A3F9002029E740F2BA210848D0
:1019780000F016FDC7E740F2C121054800F010FD50
:10198800DAE701207047012019E700BF003C024058
:101998006C25000800380240DC24000808000020FC
:1019A800040000202DE9F04F8DB00024079408941E
:1019B80009940A940B9401948A4B1A6B42F0100212
:1019C8001A631A6B02F010020192019A02941A6BC0
:1019D80042F004021A631A6B02F004020292029A9D
:1019E80003941A6B42F080021A631A6B02F08002A9
:1019F8000392039A04941A6B42F001021A631A6B59
:101A080002F001020492049A05941A6B42F0020251
:101A18001A631A6B02F002020592059A06941A6B71
:101A280042F008021A631B6B03F008030693069B37
:101A380022464FF484716C48FFF7A4FB012211463B
:101A48006A48FFF79FFB6A4F224602213846FFF794
:101A580099FB22464FF210016648FFF793FB224696
:101A68004FF480716448FFF78DFB4FF4847307933C
:101A78000126089609940A9407A95B48FFF7F4F928
:101A88000796089609940A9407A95848FFF7ECF9AD
:101A9800082307930225089509940A944FF005082E
:101AA800CDF82C8007A95148FFF7DEF90796534B6C
:101AB8000893099407A93846FFF7D6F907950896B9
:101AC80009940A9407A93846FFF7CEF9102307931B
:101AD800089509940A944FF0060BCDF82CB007A985
:101AE8003846FFF7C1F9E0230793089509940A944B
:101AF800CDF82C8007A93846FFF7B6F94FF004094E
:101B0800CDF81C900894099407A93B48FFF7ACF955
:101B18004FF4007ACDF81CA00894099407A932481C
:101B2800FFF7A2F94FF480630793089509940A9484
:101B3800CDF82C8007A93048FFF796F94FF210032B
:101B48000793089609940A9407A92A48FFF78CF97D
:101B58004FF4A4530793089509940A94CDF82CB030
:101B680007A92248FFF780F9CDF81CA0089409942A
:101B780007A93846FFF778F94FF4E053079308951B
:101B880009940A940A230B9307A93846FFF76CF9BE
:101B9800202307930894099407A91648FFF764F9C6
:101BA8004FF4107307931223089309960A94CDF8FB
:101BB8002C9007A91048FFF757F94FF48073079343
:101BC800089609940A9407A90B48FFF74DF9079559
:101BD8000B4B0893099407A90348FFF745F90DB083
:101BE800BDE8F08F003802400010024000080240B3
:101BF80000000240000C02400004024000001110E6
:101C0800000012100A2318460138FDD87047142323
:101C180018460138FDD8704770B52DED028BBDEE22
:101C2800C00AB8EEC08A002541E0C04E4FF4807368
:101C3800B361FFF7E7FF4FF08073B361FFF7E7FF8A
:101C4800013C002CF1DA07240DE00724F9E7B74E30
:101C58004FF48073B361FFF7D5FF4FF08073B36122
:101C6800FFF7D5FF013C002C10DBFF23234113F0C5
:101C7800010FECD0AD4E4FF48073B361FFF7C7FF8F
:101C88004FF08073B361FFF7BDFFEBE707240BE06C
:101C9800A64E4FF48073B361FFF7B4FF4FF0807323
:101CA800B361FFF7B4FF013C002CF1DA013507EE10
:101CB800905AF8EEE77AF4EEC87AF1EE10FA40F1AD
:101CC800FD819B4B83FB05235A19EB17C3EBA2033A
:101CD800C3EBC303EB1AB8D0012B2BD0022B7CD05B
:101CE800032B00F0CD80042B00F00C81052B00F0B5
:101CF800418107248CE18D4E4FF48073B361FFF767
:101D080081FF4FF08073B361FFF781FF013C002C26
:101D180012DB4523234113F0010FECD0834E4FF41F
:101D28008073B361FFF773FF4FF08073B361FFF700
:101D380069FFEBE70724EAE707240BE07B4E4FF443
:101D48008073B361FFF75EFF4FF08073B361FFF7F5
:101D58005EFF013C002C10DBFF23234113F0010F31
:101D6800ECD0724E4FF48073B361FFF750FF4FF021
:101D78008073B361FFF746FFEBE707240BE06B4E78
:101D88004FF48073B361FFF73DFF4FF08073B36189
:101D9800FFF73DFF013C002CF1DA87E7634E4FF473
:101DA8008073B361FFF72EFF4FF08073B361FFF7C5
:101DB8002EFF013C002C12DBFF23234113F0010FFF
:101DC800ECD05A4E4FF48073B361FFF720FF4FF009
:101DD8008073B361FFF716FFEBE70724EAE70724F0
:101DE8000BE0524E4FF48073B361FFF70BFF4FF0D7
:101DF8008073B361FFF70BFF013C002C10DBFF235E
:101E0800234113F0010FECD0484E4FF48073B361B7
:101E1800FFF7FDFE4FF08073B361FFF7F3FEEBE7CA
:101E28000724002CFFF642AF404E4FF48073B36195
:101E3800FFF7E8FE4FF08073B361FFF7E8FE013C5F
:101E4800EFE73A4E4FF48073B361FFF7DBFE4FF0D4
:101E58008073B361FFF7DBFE013C002C12DBFF232C
:101E6800234113F0010FECD0304E4FF48073B3616F
:101E7800FFF7CDFE4FF08073B361FFF7C3FEEBE7CA
:101E88000724EAE707240BE0284E4FF48073B36178
:101E9800FFF7B8FE4FF08073B361FFF7B8FE013C5F
:101EA800002CF1DA07240BE0204E4FF48073B36165
:101EB800FFF7A8FE4FF08073B361FFF7A8FE013C5F
:101EC800002CF1DAF2E6194E4FF48073B361FFF794
:101ED80099FE4FF08073B361FFF799FE013C002C27
:101EE80012DBBF23234113F0010FECD00F4E4FF448
:101EF8008073B361FFF78BFE4FF08073B361FFF718
:101F080081FEEBE70724EAE707240BE0074E4FF4CE
:101F18008073B361FFF776FE4FF08073B361FFF70C
:101F280076FE013C002CF1DA07240FE000040240A1
:101F380093244992634E4FF48073B361FFF762FEB6
:101F48004FF08073B361FFF762FE013C002CFFF68F
:101F5800ADAEFF23234113F0010FEBD0594E4FF4E0
:101F68008073B361FFF753FE4FF08073B361FFF7DF
:101F780049FEEAE70724002C0CDB524E4FF480732D
:101F8800B361FFF73FFE4FF08073B361FFF73FFE89
:101F9800013CF0E70724002C0CDB4A4E4FF4807319
:101FA800B361FFF72FFE4FF08073B361FFF72FFE89
:101FB800013CF0E707240BE0424E4FF48073B36115
:101FC800FFF720FE4FF08073B361FFF720FE013C5E
:101FD800002CFFF66BAEFF23234113F0010FEBD06B
:101FE800384E4FF48073B361FFF711FE4FF08073E2
:101FF800B361FFF707FEEAE7324E4FF48073B3612F
:10200800FFF700FE4FF08073B361FFF700FE013C5D
:10201800002C10DB2B23234113F0010FECD0294EA9
:102028004FF48073B361FFF7F2FD4FF08073B36133
:10203800FFF7E8FDEBE707240BE0224E4FF480732F
:10204800B361FFF7DFFD4FF08073B361FFF7DFFD8A
:10205800013C002C10DB8A23234113F0010FECD044
:10206800184E4FF48073B361FFF7D1FD4FF08073C2
:10207800B361FFF7C7FDEBE707240BE0114E4FF400
:102088008073B361FFF7BEFD4FF08073B361FFF754
:10209800BEFD013C002CFFF609AEE223234113F0FC
:1020A800010FEBD0074E4FF48073B361FFF7AFFD1C
:1020B8004FF08073B361FFF7A5FDEAE7BDEC028B33
:1020C80070BD00BF00040240084AD36843F0807323
:1020D800D360074B1A6842F001021A6000225A6066
:1020E8005A6800BF00BF5868801A7047F0ED00E0DA
:1020F800001000E030B595B03022002108A800F0AB
:10210800D5F9002403940494059406940794019443
:102118001B4B1A6C42F080521A641B6C03F08053FC
:102128000193019B0294174B1A6842F480421A608B
:102138001B6803F480430293029B02250895012340
:102148000B9310230C930E950F9408231093602380
:10215800119312950723139308A8FFF72FF80F235D
:102168000393049505944FF4A05306934FF48053BA
:102178000793032103A8FFF707FB15B030BD00BF85
:102188000038024000700040F8B5FEF7B3FDFFF7D5
:10219800B1FFFFF707FCFFF797FF012202217A48FA
:1021A800FEF7F0FF0120FEF7D1FD00224FF4807109
:1021B8007648FEF7E7FF03E04FF49670FEF7C6FD9A
:1021C8004FF480717148FEF7C9FF0128F4D06F4CB5
:1021D80001224FF480712046FEF7D4FF4FF480713E
:1021E8002046FEF7BBFF01283ED1694B1B68694AB0
:1021F800A2FB03239B0C1B01674A52689342FBD83E
:10220800624C00224FF480712046FEF7BBFF4FF46A
:1022180080712046FEF7A2FF88BB4FF400715B482F
:10222800FEF79CFF012835D05B4B5C68584B1B6858
:10223800584AA2FB03239B0CB4FBF3F44FF4007140
:102248005248FEF78BFF50BB534B5B68504A1268ED
:102258005049A1FB0212920CB3FBF2F31B1B4F4A2D
:102268009342EBD901261BE000224FF480712046EF
:10227800FEF788FF4FF49670FEF768FDA0E700228E
:102288004FF480712046FEF77DFF4FF49670FEF7FD
:102298005DFD95E74FF49670FEF758FD90E7002630
:1022A800002E54D13C4B5F68394B1B68394AA2FB5E
:1022B80003239B0CB7FBF3F74FF400713348FEF789
:1022C8004DFF01280ED1344B5B68314A1268314901
:1022D800A1FB0212920CB3FBF2F31B1B2F4A934291
:1022E800EAD90126002E37D12B4B5868284B1B689A
:1022F800284AA2FB03239B0CB0FBF3F0C01B07EE9C
:10230800900AF8EE677A17EE900AFEF7BDF81CA35C
:10231800D3E90023FEF73AFAFEF720FB0446A0F1C2
:102328001F0241F268339A423FF64AAFA84218D1D9
:10233800174B1B68174AA2FB03239B0C42F210722F
:1023480002FB03F2144B5B689A42FBD838E74FF460
:102358009670FEF7FBFC33E74FF49670FEF7F6FC39
:102368002EE707EE900AB8EE670AF2EE047A80EEDE
:10237800270AFFF751FC2546DAE700BFAFF30080D4
:102388003333333333331740000002400010024028
:102398000800002083DE1B43001000E020A1070096
:1023A8007047000082B0002100910B4B5A6C42F438
:1023B80080425A645A6C02F480420092009A019159
:1023C8001A6C42F080521A641B6C03F0805301931C
:1023D800019B02B0704700BF003802407047FEE71B
:1023E800FEE7FEE7FEE770477047704708B5FEF75F
:1023F8009BFC08BD054BD3F8882042F47002C3F853
:1024080088204FF000629A60704700BF00ED00E03E
:10241800DFF834D0002103E00C4B5B584350043103
:102428000B480C4B42189A42F6D30B4A02E00023A1
:1024380042F8043B094B9A42F9D3FFF7DBFF00F05F
:1024480011F8FFF7A1FE704700000220B42500082C
:10245800000000200C0000200C0000202C000020B0
:10246800FEE7000070B50D4E0D4CA41BA41000250E
:10247800A54209D10B4E0C4C00F020F8A41BA41067
:102488000025A54205D170BD56F82530984701357D
:10249800EEE756F8253098470135F2E7AC250008F5
:1024A800AC250008AC250008B02500080244034606
:1024B800934200D1704703F8011BF9E7F8B500BF54
:1024C800F8BC08BC9E467047F8B500BFF8BC08BC0D
:0424D8009E46704765
:1024DC0000000000000000000102030406070809C8
:1024EC0000000000010203042E2E2F447269766551
:1024FC0072732F53544D3332463478785F48414CC5
:10250C005F4472697665722F5372632F73746D33E7
:10251C0032663478785F68616C5F636F727465786B
:10252C002E6300002E2E2F447269766572732F5322
:10253C00544D3332463478785F48414C5F4472696D
:10254C007665722F5372632F73746D3332663478E1
:10255C00785F68616C5F6770696F2E6300000000C4
:10256C002E2E2F447269766572732F53544D33326D
:10257C00463478785F48414C5F4472697665722FB7
:10258C005372632F73746D3332663478785F68617D
:08259C006C5F7263632E6300A3
:0825A40040E4FF7F010000008C
:0425AC00AD01000875
:0425B0008901000895
:0C25B40001000000100000000024F400F2
:0400000508002419B2
:00000001FF
