:020000040800F2
:1000000000000220111F00083D1E00083F1E0008CE
:10001000411E0008431E0008451E000800000000A5
:10002000000000000000000000000000471E000863
:10003000491E0008000000004B1E00084D1E00086D
:10004000611F0008611F0008611F0008611F000890
:10005000611F0008611F0008611F0008611F000880
:10006000611F0008611F0008611F0008611F000870
:10007000611F0008611F0008611F0008611F000860
:10008000611F0008611F0008611F0008611F000850
:10009000611F0008611F0008611F0008611F000840
:1000A000611F0008611F0008611F0008611F000830
:1000B000611F0008611F0008611F0008611F000820
:1000C000611F0008611F0008611F0008611F000810
:1000D000611F0008611F0008611F0008611F000800
:1000E000611F0008611F0008611F0008611F0008F0
:1000F000611F0008611F0008611F0008611F0008E0
:10010000611F0008611F0008611F0008611F0008CF
:10011000611F0008611F0008611F0008611F0008BF
:10012000611F0008611F0008611F0008611F0008AF
:10013000611F0008611F0008611F0008611F00089F
:10014000611F0008611F0008611F0008611F00088F
:10015000611F0008611F0008611F0008611F00087F
:10016000611F0008611F0008611F0008611F00086F
:10017000611F0008611F0008611F000800000000E7
:08018000611F0008611F000867
:1001880010B5054C237833B9044B13B10448AFF3C9
:1001980000800123237010BD0C0000200000000027
:1001A800BC1F000808B5034B1BB103490348AFF354
:1001B800008008BD0000000010000020BC1F0008DF
:1001C80053B94AB9002908BF00281CBF4FF0FF31B6
:1001D8004FF0FF3000F072B9ADF1080C6DE904CEB4
:1001E80000F006F8DDF804E0DDE9022304B070470A
:1001F8002DE9F047089E04468846002B4BD18A42D9
:10020800154667D9B2FA82F24AB1C2F1200701FA5B
:1002180002F320FA07F7954047EA030894404FEAAB
:10022800154E230CB8FBFEF71FFA85FC0EFB17884A
:1002380043EA084307FB0CF1994209D9EB1807F187
:10024800FF3080F01B81994240F21881023F2B4415
:100258005B1AA4B2B3FBFEF00EFB103344EA03446E
:1002680000FB0CFCA44509D92C1900F1FF3380F0E0
:100278000781A44540F2048102382C4440EA074033
:10028800A4EB0C0400271EB1D4400023C6E90043A8
:100298003946BDE8F0878B4209D9002E00F0EB8083
:1002A8000027C6E9000138463946BDE8F087B3FAA9
:1002B80083F7002F47D18B4202D3824200F2FA80A3
:1002C800841A61EB030301209846002EE0D0C6E9AA
:1002D8000048DDE702B9FFDEB2FA82F2002A40F0F8
:1002E8008F80491B4FEA154E1FFA85F80127B1FB8D
:1002F800FEFC230C0EFB1C1143EA014308FB0CF126
:10030800994207D9EB180CF1FF3002D2994200F25A
:10031800CD808446591AA3B2B1FBFEF00EFB10142F
:1003280043EA044408FB00F8A04507D92C1900F15A
:10033800FF3302D2A04500F2B6801846A4EB0804A9
:1003480040EA0C409FE7C7F1200CBB4022FA0CFEA4
:100358004EEA030E01FA07F420FA0CF521FA0CF321
:100368004FEA1E482543B3FBF8F92C0C08FB193358
:100378001FFA8EFA44EA034309FB0AF49C4202FA84
:1003880007F200FA07F10BD91EEB030309F1FF305E
:1003980080F087809C4240F28480A9F1020973446E
:1003A8001B1BADB2B3FBF8F008FB103345EA03445E
:1003B80000FB0AFAA24508D91EEB040400F1FF333A
:1003C8006BD2A24569D90238744440EA0940A0FBBF
:1003D8000289A4EB0A044C45C2464B4654D351D07B
:1003E800002E69D0B1EB0A0564EB030404FA0CFC97
:1003F800FD40FC404CEA0505C6E90054002747E7E4
:10040800C2F1200320FA03F7954001FA02F021FA1D
:1004180003F34FEA154E3843010CB3FBFEF71FFAFE
:1004280085F80EFB173341EA034107FB08F38B42BB
:1004380004FA02F407D9691807F1FF3C2FD28B425E
:100448002DD9023F2944CB1A81B2B3FBFEF00EFB33
:10045800103341EA034100FB08F38B4207D96918BE
:1004680000F1FF3C17D28B4215D902382944C91A2A
:1004780040EA07473BE73746304609E70746E7E6DD
:100488001846FBE64145ABD2B8EB020A69EB0E020F
:1004980001381346A4E76046E9E7184695E767463A
:1004A800D1E781467CE702382C4447E7ACF1020CDF
:1004B8002B442FE7384608E73746E9E6704700BF80
:1004C80010B504460E4B18784FF47A73B3FBF0F36B
:1004D8000C4A1068B0FBF3F000F0A6F868B90F2CCE
:1004E80001D901200AE0002221464FF0FF3000F038
:1004F80055F8034B5C60002000E0012010BD00BFF0
:10050800000000200800002008B50B4B1A6842F4D0
:1005180000721A601A6842F480621A601A6842F41B
:1005280080721A60032000F01BF80020FFF7C8FF54
:1005380001F064FC002008BD003C0240034A116839
:10054800034B1B780B441360704700BF2800002042
:1005580000000020014B1868704700BF28000020E9
:1005680010B50446C31E042B0FD80A4AD36823F4D7
:10057800E0631B041B0C240204F4E064234343F0EF
:10058800BF6343F40033D36010BD9221024801F0E9
:1005980034FCEAE700ED00E0EC1F000870B5054602
:1005A8000C4616460F2A25D80F2C28D81B4BDB687B
:1005B800C3F30223C3F10702042A28BF0422191D2A
:1005C800062921D9033B4FF0FF3101FA02F224EA50
:1005D80002049C4001FA03F326EA03063443002D83
:1005E80014DB2401E4B205F1604505F5614585F8A1
:1005F800004370BDAA210A4801F0FFFBD4E7AB21F4
:10060800074801F0FAFBD1E70023DCE705F00F0506
:100618002401E4B2034B5C55EBE700BF00ED00E0BA
:10062800EC1F000814ED00E00138B0F1807F0AD219
:10063800064B5860064AF02182F823100020986083
:1006480007221A6070470120704700BF10E000E0E1
:1006580000ED00E02DE9F04383B080460E46B44B30
:10066800984223D003F5806398421FD003F5806336
:1006780098421BD003F58063984217D003F5806336
:10068800984213D003F5806398420FD003F5806336
:1006980098420BD003F58063984207D003F5806336
:1006A800984203D0B321A34801F0A7FB33689AB25C
:1006B80012B11B0C1B041BB1B4219E4801F09DFB19
:1006C8007368012B1ED9112B1CD0022B1AD0122BA8
:1006D80018D0994A934215D002F58012934211D04E
:1006E80002F5801293420DD0A2F5F812934209D078
:1006F80002F58012934205D002F58012934201D090
:10070800032B04D1B368022B06D8002445E0B52199
:10071800884801F072FBF5E7B621864801F06DFBC9
:10072800F3E7C821834801F068FB4AE0072300E0AB
:1007380000238B4003430232804941F82230804B2A
:100748001A68FB4303EA0201706810F4803F01D085
:1007580047EA02017A4A1160526803EA02017068A6
:1007680010F4003F01D047EA0201754A51609268CF
:1007780003EA0201706810F4801F01D047EA020101
:100788006F4A9160D2681340716811F4001F01D05C
:1007980047EA02036A4AD36001340F2C00F2C5808D
:1007A8000125A54037682F40BD42F5D173685A1E10
:1007B800012A03D9112B01D0122B19D1F368032B6D
:1007C800AFD8D8F80820610003238B4022EA03023F
:1007D800F3688B401343C8F80830D8F8042022EA9D
:1007E80005027368C3F30015A5401543C8F8045003
:1007F800D8F80C204FEA4409032505FA09F5ED431A
:100808002A40B36803FA09F31343C8F80C30736835
:10081800022B01D0122B31D13369FBB1092B1DD02A
:10082800012B1BD0022B19D0032B17D0042B15D06A
:10083800052B13D0062B11D0072B0FD0082B0DD06A
:100848000A2B0BD00B2B09D00C2B07D00D2B05D066
:100858000F2B03D0E021374801F0CFFAE208083225
:1008680058F8220004F0070399000F238B4020EA70
:10087800030033698B40034348F82230D8F800302E
:100888001D40736803F0030303FA09F31D43C8F816
:100898000050736813F0805F3FF47EAF002301932C
:1008A800284B5A6C42F480425A645B6C03F48043D0
:1008B8000193019BA208911C204B53F8210004F0DE
:1008C800030399000F238B4020EA0300184B984537
:1008D8003FF42EAF03F5806398451AD003F5806383
:1008E800984518D003F58063984516D003F58063C2
:1008F800984514D003F58063984512D003F58063BA
:10090800984510D003F5806398453FF40FAF08234E
:100918000FE701230DE702230BE7032309E704236D
:1009280007E7052305E7062303E703B0BDE8F083DF
:100938000000024028200008000011100038014083
:10094800003C01400038024070B5064615460C468A
:1009580029B1012D09D875B92404B46170BD40F2DC
:100968009F11064801F049FAF3E74FF4D0710348A4
:1009780001F043FAEFE7B461F0E700BF2820000870
:10098800002800F0648270B582B0044603680F2B1B
:1009980039D8236813F0010F4DD063682BB1B3F534
:1009A800803F02D0B3F5A02F32D1A54B9B6803F04E
:1009B8000C03042B36D0A24B9B6803F00C03082BC6
:1009C8002BD06368B3F5803F5FD0B3F5A02F62D01A
:1009D8009B4B1A6822F480321A601A6822F480222B
:1009E8001A606368002B60D0FFF7B4FD0546944B8E
:1009F8001B6813F4003F1ED1FFF7ACFD401B6428B1
:100A0800F5D9032028E2E8218E4801F0F6F9C0E77D
:100A1800ED218C4801F0F1F9C7E7894B5B6813F4C5
:100A2800800FCED0864B1B6813F4003F03D0636859
:100A3800002B00F00E82236813F0020F67D0E368E2
:100A4800012B41D823691F2B44D87D4B9B6813F099
:100A58000C0F4AD07A4B9B6803F00C03082B3FD04D
:100A6800E368002B77D0784B01221A60FFF772FDFC
:100A78000546734B1B6813F0020F63D1FFF76AFD3D
:100A8800401B0228F5D90320E6E16D4A136843F4B8
:100A980080331360A5E76A4B1A6842F480221A6013
:100AA8001A6842F480321A609BE7FFF753FD054647
:100AB800634B1B6813F4003FBDD0FFF74BFD401B91
:100AC8006428F5D90320C7E140F21F115D4801F001
:100AD80094F9B7E74FF490715A4801F08EF9B4E7EA
:100AE800574B5B6813F4800FBAD1554B1B6813F052
:100AF800020F04D0E368012B01D00120ACE1504A79
:100B0800136823F0F803216943EAC10313602368DB
:100B180013F0080F49D06369012B2ED8636993B38A
:100B28004A4B01221A60FFF715FD0546444B5B6FDF
:100B380013F0020F39D1FFF70DFD401B0228F5D93C
:100B4800032089E13E4A136823F0F803216943EA48
:100B5800C1031360DBE73C4B00221A60FFF7FAFC85
:100B68000546374B1B6813F0020FD0D0FFF7F2FC95
:100B7800401B0228F5D903206EE14FF4B0713148CB
:100B880001F03BF9CAE7314B00221A60FFF7E2FC9B
:100B980005462B4B5B6F13F0020F06D0FFF7DAFC0C
:100BA800401B0228F5D9032056E1236813F0040FEF
:100BB80000F08780A368012B01D9052B38D1204B81
:100BC8001B6C13F0805F39D1002301931C4B1A6C06
:100BD80042F080521A641B6C03F080530193019B0E
:100BE80001251B4B1B6813F4807F33D0A368012BAE
:100BF80044D0052B48D0124B1A6F22F001021A6715
:100C08001A6F22F004021A67A368002B46D0FFF778
:100C1800A1FC06460A4B1B6F13F0020F4FD1FFF7DA
:100C280099FC801B41F288339842F3D9032013E1E1
:100C38004FF4C671034801F0E0F8C0E70025D0E79B
:100C4800003802406420000800004742800E4742F6
:100C580000700040834A136843F480731360FFF701
:100C680079FC06467F4B1B6813F4807FBED1FFF7E3
:100C780071FC801B0228F5D90320EDE07A4A136F36
:100C880043F001031367BFE7774B1A6F42F0040282
:100C98001A671A6F42F001021A67B5E7FFF75AFCA4
:100CA8000646714B1B6F13F0020F08D0FFF752FC7A
:100CB800801B41F288339842F3D90320CCE0002D01
:100CC8003BD1A369022B3ED8A369002B00F0C38057
:100CD800654A926802F00C02082A00F09080022B04
:100CE80079D1E36913B1B3F5800F32D1236A3F2B71
:100CF80035D8636A323BB3F5BF7F36D8A36A022B77
:100D080005D0042B03D0062B01D0082B33D1E36A7E
:100D1800023B0D2B35D8554B00221A60FFF71AFC01
:100D28000546514B1B6813F0007F30D0FFF712FCCB
:100D3800401B0228F5D903208EE04B4A136C23F0A0
:100D480080531364BDE740F2CF11494801F055F8CC
:100D5800BAE74FF4EC71464801F04FF8C6E740F2A5
:100D6800D911434801F049F8C3E74FF4ED71404801
:100D780001F043F8C2E740F2DB113D4801F03DF8CD
:100D8800C5E74FF4EE713A4801F037F8C3E7E36975
:100D9800226A1343626A43EA8213A26A5208013A3A
:100DA80043EA0243E26A43EA02632F4A53602F4B45
:100DB80001221A60FFF7CEFB04462B4B1B6813F089
:100DC800007F06D1FFF7C6FB001B0228F5D90320D8
:100DD80042E0002040E0254B00221A60FFF7BAFBF2
:100DE8000446214B1B6813F0007F06D0FFF7B2FBC7
:100DF800001B0228F5D903202EE000202CE0012B4F
:100E08002CD0194B9B6803F48001E269914201D010
:100E1800012021E003F03F02216A8A4201D001202B
:100E28001AE0616A47F6C0721A408A4201D001206E
:100E380012E003F44032A16A8A4201D001200BE09B
:100E480003F07063E26A93420AD0012004E00120B3
:100E58007047012000E0002002B070BD0120FBE7D0
:100E68000020F9E700700040003802406000474267
:100E780064200008324B9B6803F00C03042B5CD001
:100E8800082B01D02F4870472DE9F04B2C4B5A689E
:100E980002F03F025B6813F4800F2BD0284B5B688D
:100EA800C3F388131E4600275C010025E41A65EB8E
:100EB8000705A90141EA9461A001001B61EB050146
:100EC800CB0043EA5073C400A01943EB07014B025F
:100ED80043EAD0534402204619460023FFF770F92D
:100EE800174B5B68C3F3014301335B00B0FBF3F0BE
:100EF800BDE8F08B124B5B68C3F388131E460027CE
:100F08005C010025E41A65EB0705A90141EA946133
:100F1800A001001B61EB0501CB0043EA5073C4003C
:100F2800A01943EB07018B0243EA90538402204641
:100F380019460023FFF744F9D2E70348704700BF7A
:100F4800003802400024F40000127A00002800F063
:100F5800FA8070B504460D460368013B0E2B11D884
:100F6800072D15D87A4B1B6803F00F03AB4215D237
:100F7800EBB2774A1370136803F00F03AB420DD03E
:100F8800012070BD40F25121724800F036FFE7E7BA
:100F980040F252216F4800F030FFE3E7236813F076
:100FA800020F29D013F0040F04D06B4A936843F45E
:100FB800E0539360236813F0080F04D0664A9368DF
:100FC80043F460439360A3687BB1802B0DD0902BD2
:100FD8000BD0A02B09D0B02B07D0C02B05D0D02B1D
:100FE80003D0E02B01D0F02B33D15B4A936823F078
:100FF800F003A1680B439360236813F0010F42D0FC
:101008006368032B2BD86368012B2ED09A1E012A04
:1010180032D9514A126812F0020F00F096804E49F8
:101028008A6822F0030213438B60FFF793FA06469F
:10103800494B9B6803F00C036268B3EB820F22D024
:10104800FFF788FA801B41F288339842F0D90320D1
:1010580097E740F275213F4800F0CFFEC5E74FF40F
:101068001F713C4800F0C9FECDE73B4A126812F4F4
:10107800003FD4D1012084E7374A126812F0007F7C
:10108800CDD101207DE7324B1B6803F00F03AB4243
:1010980009D9EAB22E4B1A701B6803F00F03AB4252
:1010A80001D001206DE7236813F0040F14D0E36822
:1010B8005BB1B3F5805F08D0B3F5A05F05D0B3F599
:1010C800C05F02D0B3F5E05F31D1234A936823F4BF
:1010D800E053E1680B439360236813F0080F15D0C1
:1010E80023695BB1B3F5805F08D0B3F5A05F05D085
:1010F800B3F5C05F02D0B3F5E05F1ED1164A93681E
:1011080023F46043216943EAC1039360FFF7B2FE09
:10111800114B9B68C3F30313104AD35CD840104BA0
:101128001860104B1868FFF7CBF9002029E740F248
:10113800BA21084800F061FEC7E740F2C12105481E
:1011480000F05BFEDAE701207047012019E700BFD5
:10115800003C02406420000800380240D41F000808
:10116800080000200400002010B4036A046A24F078
:1011780001040462846924F0F00444EA021223F0B2
:101188000A030B43826103625DF8044B704710B495
:10119800036A23F0100303628469036A24F4704429
:1011A80044EA023223F0A00343EA01138261036296
:1011B8005DF8044B7047836823F07003194341F0CE
:1011C800070181607047000010B504460368264A8D
:1011D800934237D0B3F1804F34D0A2F57C4293428A
:1011E80030D002F5806293422CD002F5806293429F
:1011F80028D002F58062934224D002F5806293429F
:1012080020D002F5704293421CD002F570529342EE
:1012180018D002F58062934214D002F5806293429E
:1012280010D0A2F5983293420CD002F58062934216
:1012380008D002F58062934204D040F285110B4831
:1012480000F0DBFD022384F83D302268936803F048
:101258000703062B03D0136843F00103136001232F
:1012680084F83D30002010BD000001409C2000089B
:101278000368304A904212D0B0F1804F0FD0A2F5E7
:101288007C4290420BD002F58062904207D002F572
:101298008062904203D002F57842904203D123F055
:1012A80070034A681343234A90422AD0B0F1804F12
:1012B80027D0A2F57C42904223D002F5806290426A
:1012C8001FD002F5806290421BD002F5784290420E
:1012D80017D002F57052904213D002F58062904206
:1012E8000FD002F5806290420BD0A2F5983290425E
:1012F80007D002F58062904203D002F580629042E6
:1013080003D123F44073CA68134323F080034A6966
:10131800134303608B68C3620B688362054B984272
:1013280003D003F58063984201D10B69036301235D
:10133800436170470000014000287AD010B5044688
:1013480003683D4A934237D0B3F1804F34D0A2F5B9
:101358007C42934230D002F5806293422CD002F551
:101368008062934228D002F58062934224D002F52D
:101378008062934220D002F5704293421CD002F55D
:101388007052934218D002F58062934214D002F54D
:101398008062934210D0A2F5983293420CD002F5A5
:1013A8008062934208D002F58062934204D04FF4E1
:1013B8008971224800F021FDA3683BB1102B05D0AC
:1013C800202B03D0402B01D0602B1AD123692BB1DD
:1013D800B3F5807F02D0B3F5007F18D1A3690BB1B4
:1013E800802B1AD194F83D30EBB1022384F83D30BC
:1013F800211D2068FFF73CFF012384F83D300020C1
:1014080010BD40F213110D4800F0F7FCDEE74FF471
:101418008A710A4800F0F1FCE0E740F2151107482C
:1014280000F0EBFCDEE784F83C30204600F054FD89
:10143800DBE70120704700BF000001409C20000846
:1014480010B4846824F47F4442EA03230B43234303
:1014580083605DF8044B704738B590F83C30012B39
:1014680000F03E820D460446012380F83C300223FA
:1014780080F83D300B68B3F5805F11D0B3F5005F9D
:101488000ED06BB1102B0BD0202B09D0302B07D0EE
:10149800402B05D0502B03D0602B01D0702B51D19D
:1014A8002268936823F47F4323F0770393602B68C3
:1014B800402B00F0CF814BD9702B00F003817BD8F3
:1014C800502B00F07581602B40F042812368B64AAA
:1014D80093421FD0B3F1804F1CD0A2F57C429342B7
:1014E80018D002F58062934214D002F580629342CC
:1014F80010D002F5784293420CD002F57052934214
:1015080008D0A2F59432934204D041F2DA11A748E8
:1015180000F073FC6B68B3F5004F05D023B1022BC4
:1015280002D00A2B40F08A81EB680F2B00F28C81E5
:10153800EA6869682068FFF72AFE60212068FFF7DB
:101548003AFE05E141F28B11984800F056FCA7E7F6
:10155800102B08D004D9202B05D0302B03D0F7E06E
:10156800002B40F0F58023688F4A93421FD0B3F1D7
:10157800804F1CD0A2F57C42934218D002F58062BD
:10158800934214D002F58062934210D002F578425B
:1015980093420CD002F57052934208D0A2F59432CF
:1015A800934204D041F2FD11804800F026FC2968DE
:1015B8002068FFF700FECBE0B3F5805F45D0B3F5B8
:1015C800005F40F0C5802368774A934217D0B3F193
:1015D800804F14D0A2F57C42934210D002F580626D
:1015E80093420CD002F58062934208D002F578420B
:1015F800934204D041F2B6116C4800F0FEFBAB6890
:101608004BB1B3F5805F06D0B3F5005F03D0B3F5F7
:10161800405F40F0B6806B68B3F5004F05D023B14A
:10162800022B02D00A2B40F0B280EB680F2B00F29D
:10163800B480EB686A68A9682068FFF701FF226830
:10164800936843F48043936082E02368564A934248
:101658007ED0B3F1804F7BD0A2F57C42934277D005
:1016680002F58062934273D002F5806293426FD094
:1016780002F5806293426BD002F58062934267D094
:1016880002F57042934263D002F5705293425FD0E4
:1016980002F5806293425BD002F58062934257D094
:1016A800A2F59832934253D002F5806293424FD00C
:1016B80002F5806293424BD041F297113B4800F00B
:1016C8009CFB45E02368384A93421FD0B3F1804F12
:1016D8001CD0A2F57C42934218D002F58062934256
:1016E80014D002F58062934210D002F578429342FA
:1016F8000CD002F57052934208D0A2F5943293426E
:1017080004D041F29E11294800F077FBAB6843B141
:10171800B3F5805F05D0B3F5005F02D0B3F5405F45
:101728001DD16B68B3F5004F04D01BB1022B01D05B
:101738000A2B1AD1EB680F2B1DD8EB686A68A968C9
:101748002068FFF77DFE2268936843F07703936073
:10175800012384F83D30002084F83C0038BD41F274
:10176800A111124800F049FBDBE741F2A2110F4832
:1017780000F043FBDEE741F2A3110C4800F03DFB0B
:10178800DBE741F2B911094800F037FB43E741F2C2
:10179800BA11064800F031FB47E741F2BB11034894
:1017A80000F02BFB45E700BF000001409C2000082B
:1017B80023684C4A93421FD0B3F1804F1CD0A2F546
:1017C8007C42934218D002F58062934214D002F50D
:1017D8008062934210D002F5784293420CD002F511
:1017E8007052934208D0A2F59432934204D041F249
:1017F800CA113D4800F001FB6B68B3F5004F04D0F7
:101808001BB1022B01D00A2B0CD1EB680F2B0FD880
:10181800EA6869682068FFF7A7FC50212068FFF78D
:10182800CAFC95E741F2CD112F4800F0E6FAECE743
:1018380041F2CE112C4800F0E0FAE9E741F2DD115F
:10184800294800F0DAFA6FE641F2DE11264800F086
:10185800D4FA6DE62368234A93421FD0B3F1804F30
:101868001CD0A2F57C42934218D002F580629342C4
:1018780014D002F58062934210D002F57842934268
:101888000CD002F57052934208D0A2F594329342DC
:1018980004D041F2EA11144800F0AFFA6B68B3F5CE
:1018A800004F04D01BB1022B01D00A2B0CD1EB68DE
:1018B8000F2B0FD8EA6869682068FFF755FC4021AC
:1018C8002068FFF778FC43E741F2ED11064800F085
:1018D80094FAECE741F2EE11034800F08EFAE9E7DA
:1018E80002203BE7000001409C20000838B5044670
:1018F8000D460368414A93421FD0B3F1804F1CD074
:10190800A2F57C42934218D002F58062934214D02B
:1019180002F58062934210D002F5806293420CD0A7
:1019280002F58062934208D002F57042934204D0D7
:1019380040F26461324800F060FA2B686BB1102BFA
:101948000BD0202B09D0302B07D0402B05D0502BA3
:1019580003D0602B01D0702B41D16B68802B01D054
:10196800002B42D194F83C30012B44D0012384F859
:101978003C30022384F83D3023685968986821F088
:1019880070012A680A435A6023681C4A93421AD095
:10199800B3F1804F17D0A2F57C42934213D002F5E1
:1019A800806293420FD002F5806293420BD002F519
:1019B8007842934207D002F57052934203D0A2F5C1
:1019C8009432934204D120F080006A6810439860F2
:1019D800012384F83D30002084F83C0038BD40F2F3
:1019E8006561074800F009FAB7E740F26661044804
:1019F80000F003FAB6E70220F0E700BF000001405C
:101A0800D42000082DE9F04F8DB0002407940894E5
:101A180009940A940B9401947D4B1A6B42F01002BE
:101A28001A631A6B02F010020192019A02941A6B5F
:101A380042F004021A631A6B02F004020292029A3C
:101A480003941A6B42F080021A631A6B02F0800248
:101A58000392039A04941A6B42F001021A631A6BF8
:101A680002F001020492049A05941A6B42F00202F1
:101A78001A631A6B02F002020592059A06941A6B11
:101A880042F008021A631B6B03F008030693069BD7
:101A9800224608215F48FEF757FFDFF890810122B0
:101AA80011464046FEF750FF5B4F2246022138465A
:101AB800FEF74AFF22464FF210015848FEF744FF4E
:101AC800082507950126089609940A9407A95148FC
:101AD800FEF7C0FD0796089609940A9407A94046A0
:101AE800FEF7B8FD07950225089509940A944FF06A
:101AF8000509CDF82C9007A94046FEF7ABFD0796DF
:101B0800474B0893099407A93846FEF7A3FD0795A4
:101B1800089609940A9407A93846FEF79BFD1023F6
:101B28000793089509940A944FF0060BCDF82CB04A
:101B380007A93846FEF78EFDE02307930895099418
:101B48000A94CDF82C9007A93846FEF783FD4FF08C
:101B5800040ACDF81CA00894099407A93148FEF797
:101B680079FD4FF480630793089509940A94CDF89A
:101B78002C9007A92B48FEF76DFD4FF21003079331
:101B8800089609940A9407A92448FEF763FD4FF4C0
:101B9800A4530793089509940A94CDF82CB007A983
:101BA8004046FEF757FD4FF40073079308940994D5
:101BB80007A93846FEF74EFD4FF4E0530793089502
:101BC80009940A940A230B9307A93846FEF742FDA5
:101BD800202307930894099407A91048FEF73AFDB3
:101BE8004FF4107307931223089309960A94CDF8BB
:101BF8002CA007A90B48FEF72DFD07950A4B089363
:101C0800099407A90348FEF725FD0DB0BDE8F08F3C
:101C1800003802400010024000000240000C024060
:101C280000001110000402400000121000080240D9
:101C3800034B1A6800235362536A8342FCD37047EC
:101C48002C00002008B5054A536943F0020353618C
:101C58004FF47A70FFF7ECFF08BD00BF00000240A8
:101C680008B5054A536943F0020353614FF4FA601B
:101C7800FFF7DEFF08BD00BF0000024008B5054AB7
:101C8800536923F00203536140F6C410FFF7D0FFF5
:101C980008BD00BF0000024008B5054A536923F09B
:101CA8000203536140F2DC50FFF7C2FF08BD00BFDA
:101CB8000000024008B5054A536923F00203536146
:101CC80041F28830FFF7B4FF08BD00BF00000240B2
:101CD80008B5FFF7B7FFFFF7D1FF08BD08B5FFF755
:101CE800BFFFFFF7D9FF08BD30B595B030220021FE
:101CF80008A800F057F90024039404940594069466
:101D0800079401941B4B1A6C42F080521A641B6CA6
:101D180003F080530193019B0294174B1A6842F415
:101D280080421A601B6803F480430293029B0225D9
:101D3800089501230B9310230C930E950F940823F9
:101D4800109332231193042312930723139308A8A3
:101D5800FEF716FE0F230393049505944FF4A05342
:101D680006934FF480530793214603A8FFF7EEF834
:101D780015B030BD003802400070004038B5FEF79D
:101D8800C3FBFFF7B1FFFFF73DFE00F06DF8194800
:101D9800FFF71AFAFFF78EFF29E0FFF799FF013CDA
:101DA800002C07DBFF23234113F0010FF5D0FFF7C9
:101DB80095FFF4E7072402E0FFF78AFF013C002CB7
:101DC80007DBFF23234113F0010FF5D0FFF786FF50
:101DD800F4E7072402E0FFF77BFF013C002CFADA66
:101DE8000135042D01DC0724DAE7FFF763FF00253E
:101DF800F7E700BF2C0000207047704782B0002131
:101E080000910B4B5A6C42F480425A645A6C02F4AB
:101E180080420092009A01911A6C42F080521A6432
:101E28001B6C03F080530193019B02B0704700BF05
:101E3800003802407047FEE7FEE7FEE7FEE770471E
:101E48007047704708B5FEF779FB08BD054BD3F816
:101E5800882042F47002C3F888204FF000629A602C
:101E6800704700BF00ED00E000B587B00023029383
:101E7800039304930593009301931548154A026050
:101E8800436083604FF6FE72C26003614361836101
:101E9800FFF752FA98B906A94FF4805341F8103D5C
:101EA8000B48FFF7D9FA68B90023009301936946F4
:101EB8000748FFF71BFD40B907B05DF804FBFFF7C3
:101EC8009BFFE8E7FFF798FFEEE7FFF795FFF3E7DB
:101ED8002C000020000001400268094B9A4200D003
:101EE800704782B000230193064B5A6C42F00102FE
:101EF8005A645B6C03F001030193019B02B07047C5
:101F08000000014000380240DFF834D0002103E02F
:101F18000C4B5B58435004310B480C4B42189A4207
:101F2800F6D30B4A02E0002342F8043B094B9A42DD
:101F3800F9D3FFF78BFF00F011F8FFF71FFF704789
:101F48000000022020210008000000200C000020D2
:101F58000C0000206C000020FEE7000070B50D4E5C
:101F68000D4CA41BA4100025A54209D10B4E0C4C06
:101F780000F020F8A41BA4100025A54205D170BDCF
:101F880056F8253098470135EEE756F8253098473A
:101F98000135F2E718210008182100081821000867
:101FA8001C21000802440346934200D1704703F8FD
:101FB800011BF9E7F8B500BFF8BC08BC9E4670479E
:0C1FC800F8B500BFF8BC08BC9E4670478E
:101FD40000000000000000000102030406070809D5
:101FE40000000000010203042E2E2F44726976655E
:101FF40072732F53544D3332463478785F48414CD2
:102004005F4472697665722F5372632F73746D33F4
:1020140032663478785F68616C5F636F7274657878
:102024002E6300002E2E2F447269766572732F532F
:10203400544D3332463478785F48414C5F4472697A
:102044007665722F5372632F73746D3332663478EE
:10205400785F68616C5F6770696F2E6300000000D1
:102064002E2E2F447269766572732F53544D33327A
:10207400463478785F48414C5F4472697665722FC4
:102084005372632F73746D3332663478785F68618A
:102094006C5F7263632E63002E2E2F447269766523
:1020A40072732F53544D3332463478785F48414C21
:1020B4005F4472697665722F5372632F73746D3344
:1020C40032663478785F68616C5F74696D2E630082
:1020D4002E2E2F447269766572732F53544D33320A
:1020E400463478785F48414C5F4472697665722F54
:1020F4005372632F73746D3332663478785F68611A
:0C2104006C5F74696D5F65782E630000ED
:08211000E8E0FF7F0100000080
:04211800AD0100080D
:04211C00890100082D
:0C21200001000000100000000024F4008A
:0400000508001F11BF
:00000001FF
