:020000040800F2
:10000000000002205D2700081D2700081F270008A8
:1000100021270008232700082527000800000000EA
:10002000000000000000000000000000272700087A
:1000300029270008000000002B2700082D270008B2
:10004000AD270008AD270008AD270008AD27000840
:10005000AD270008AD27000835270008AD270008A8
:10006000AD270008AD270008AD270008AD27000820
:10007000AD270008AD270008AD270008AD27000810
:10008000AD270008AD270008AD270008AD27000800
:10009000AD270008AD270008AD270008AD270008F0
:1000A000AD270008AD270008AD270008AD270008E0
:1000B000AD270008AD270008AD270008AD270008D0
:1000C000AD270008AD270008AD270008AD270008C0
:1000D000AD270008AD270008AD270008AD270008B0
:1000E000AD270008AD270008AD270008AD270008A0
:1000F000AD270008AD270008AD270008AD27000890
:10010000AD270008AD270008AD270008AD2700087F
:10011000AD270008AD270008AD270008AD2700086F
:10012000AD270008AD270008AD270008AD2700085F
:10013000AD270008AD270008AD270008AD2700084F
:10014000AD270008AD270008AD270008AD2700083F
:10015000AD270008AD270008AD270008AD2700082F
:10016000AD270008AD270008AD270008AD2700081F
:10017000AD270008AD270008AD27000800000000EB
:08018000AD270008AD270008BF
:1001880010B5054C237833B9044B13B10448AFF3C9
:1001980000800123237010BD14000020000000001F
:1001A8000828000808B5034B1BB103490348AFF3FF
:1001B800008008BD00000000180000200828000882
:1001C80081F0004102E000BF83F0004330B54FEA00
:1001D80041044FEA430594EA050F08BF90EA020F6D
:1001E8001FBF54EA000C55EA020C7FEA645C7FEA00
:1001F800655C00F0E2804FEA5454D4EB5555B8BF23
:100208006D420CDD2C4480EA020281EA030382EA93
:10021800000083EA010180EA020281EA0303362D25
:1002280088BF30BD11F0004F4FEA01314FF4801CF8
:100238004CEA113102D0404261EB410113F0004F0A
:100248004FEA03334CEA133302D0524263EB4303C1
:1002580094EA050F00F0A780A4F10104D5F1200E5F
:100268000DDB02FA0EFC22FA05F2801841F10001BA
:1002780003FA0EF2801843FA05F359410EE0A5F18E
:1002880020050EF1200E012A03FA0EFC28BF4CF0BF
:10029800020C43FA05F3C01851EBE37101F0004575
:1002A80007D54FF0000EDCF1000C7EEB00006EEB82
:1002B8000101B1F5801F1BD3B1F5001F0CD349080C
:1002C8005FEA30004FEA3C0C04F101044FEA445263
:1002D80012F5800F80F09A80BCF1004F08BF5FEAEA
:1002E800500C50F1000041EB045141EA050130BDCA
:1002F8005FEA4C0C404141EB010111F4801FA4F16D
:100308000104E9D191F0000F04BF01460020B1FAC1
:1003180081F308BF2033A3F10B03B3F120020CDAF9
:100328000C3208DD02F1140CC2F10C0201FA0CF0D7
:1003380021FA02F10CE002F11402D8BFC2F1200C3C
:1003480001FA02F120FA0CFCDCBF41EA0C019040F2
:10035800E41AA2BF01EB0451294330BD6FEA04043B
:100368001F3C1CDA0C340EDC04F11404C4F1200226
:1003780020FA04F001FA02F340EA030021FA04F338
:1003880045EA030130BDC4F10C04C4F1200220FA8F
:1003980002F001FA04F340EA0300294630BD21FACD
:1003A80004F0294630BD94F0000F83F4801306BF93
:1003B80081F480110134013D4EE77FEA645C18BF87
:1003C8007FEA655C29D094EA050F08BF90EA020F1E
:1003D80005D054EA000C04BF1946104630BD91EA16
:1003E800030F1EBF0021002030BD5FEA545C05D119
:1003F8004000494128BF41F0004130BD14F5800458
:100408003CBF01F5801130BD01F0004545F0FE41CB
:1004180041F470014FF0000030BD7FEA645C1ABF00
:10042800194610467FEA655C1CBF0B46024650EA37
:10043800013406BF52EA033591EA030F41F4002163
:1004480030BD00BF90F0000F04BF0021704730B5E9
:100458004FF4806404F132044FF000054FF00001BE
:1004680050E700BF90F0000F04BF0021704730B57F
:100478004FF4806404F1320410F0004548BF404254
:100488004FF000013EE700BF42004FEAE2014FEAA9
:1004980031014FEA02701FBF12F07F4393F07F4F84
:1004A80081F06051704732F07F4208BF704793F087
:1004B8007F4F04BF41F40021704730B54FF460749A
:1004C80001F0004521F000411CE700BF50EA01029D
:1004D80008BF704730B54FF000050AE050EA010246
:1004E80008BF704730B511F0004502D5404261EBB6
:1004F80041014FF4806404F132045FEA915C3FF4F7
:10050800D8AE4FF003025FEADC0C18BF03325FEA93
:10051800DC0C18BF033202EBDC02C2F1200300FA44
:1005280003FC20FA02F001FA03FE40EA0E0021FA69
:1005380002F11444BDE600BF70B54FF0FF0C4CF457
:10054800E06C1CEA11541DBF1CEA135594EA0C0F09
:1005580095EA0C0F00F0DEF82C4481EA030621EA44
:100568004C5123EA4C5350EA013518BF52EA03357F
:1005780041F4801143F4801338D0A0FB02CE4FF031
:100588000005E1FB02E506F00042E0FB03E54FF061
:100598000006E1FB03569CF0000F18BF4EF0010E59
:1005A800A4F1FF04B6F5007F64F5407404D25FEA55
:1005B8004E0E6D4146EB060642EAC62141EA555108
:1005C8004FEAC52040EA5E504FEACE2EB4F1FD0C4A
:1005D80088BFBCF5E06F1ED8BEF1004F08BF5FEAC8
:1005E800500E50F1000041EB045170BD06F000467A
:1005F80046EA010140EA020081EA0301B4EB5C0427
:10060800C2BFD4EB0C0541EA045170BD41F480111E
:100618004FF0000E013C00F3AB8014F1360FDEBF43
:10062800002001F0004170BDC4F10004203C35DA1F
:100638000C341BDC04F11404C4F1200500FA05F3A2
:1006480020FA04F001FA05F240EA020001F0004243
:1006580021F0004110EBD37021FA04F642EB0601B9
:100668005EEA430E08BF20EAD37070BDC4F10C04E3
:10067800C4F1200500FA04F320FA05F001FA04F2A7
:1006880040EA020001F0004110EBD37041F1000193
:100698005EEA430E08BF20EAD37070BDC4F120059E
:1006A80000FA05F24EEA020E20FA04F301FA05F206
:1006B80043EA020321FA04F001F0004121FA04F2AE
:1006C80020EA020000EBD3705EEA430E08BF20EA7E
:1006D800D37070BD94F0000F0FD101F000464000B8
:1006E80041EB010111F4801F08BF013CF7D041EA3A
:1006F800060195F0000F18BF704703F0004652003E
:1007080043EB030313F4801F08BF013DF7D043EA0E
:100718000603704794EA0C0F0CEA135518BF95EAC4
:100728000C0F0CD050EA410618BF52EA4306D1D14B
:1007380081EA030101F000414FF0000070BD50EA6A
:10074800410606BF1046194652EA430619D094EAF4
:100758000C0F02D150EA013613D195EA0C0F05D1DE
:1007680052EA03361CBF104619460AD181EA030132
:1007780001F0004141F0FE4141F470014FF00000EA
:1007880070BD41F0FE4141F4780170BD70B54FF085
:10079800FF0C4CF4E06C1CEA11541DBF1CEA135505
:1007A80094EA0C0F95EA0C0F00F0A7F8A4EB0504E7
:1007B80081EA030E52EA03354FEA013100F08880DE
:1007C8004FEA03334FF0805545EA131343EA1263A7
:1007D8004FEA022245EA111545EA10654FEA00265C
:1007E8000EF000419D4208BF964244F1FD0404F515
:1007F800407402D25B084FEA3202B61A65EB030571
:100808005B084FEA32024FF480104FF4002CB6EB2D
:10081800020E75EB030E22BFB61A754640EA0C00AD
:100828005B084FEA3202B6EB020E75EB030E22BFED
:10083800B61A754640EA5C005B084FEA3202B6EB2E
:10084800020E75EB030E22BFB61A754640EA9C00ED
:100858005B084FEA3202B6EB020E75EB030E22BFBD
:10086800B61A754640EADC0055EA060E18D04FEA7B
:10087800051545EA16754FEA06164FEAC30343EA1B
:1008880052734FEAC2025FEA1C1CC0D111F4801FE8
:100898000BD141EA00014FF000004FF0004CB6E7E1
:1008A80011F4801F04BF01430020B4F1FD0C88BF80
:1008B800BCF5E06F3FF6AFAEB5EB030C04BFB6EB8B
:1008C800020C5FEA500C50F1000041EB045170BD7E
:1008D8000EF0004E4EEA113114EB5C04C2BFD4EBAB
:1008E8000C0541EA045170BD41F480114FF0000E2F
:1008F800013C90E645EA060E8DE60CEA135594EAAB
:100908000C0F08BF95EA0C0F3FF43BAF94EA0C0FAD
:100918000AD150EA01347FF434AF95EA0C0F7FF422
:1009280025AF104619462CE795EA0C0F06D152EA76
:1009380003353FF4FDAE1046194622E750EA41065A
:1009480018BF52EA43067FF4C5AE50EA41047FF46B
:100958000DAF52EA43057FF4EBAE12E74FEA4102CE
:1009680012F5001215D211D56FF47873B3EB6252F9
:1009780012D94FEAC12343F0004343EA505311F020
:10098800004F23FA02F018BF404270474FF00000B2
:10099800704750EA013005D111F0004008BF6FF0F0
:1009A800004070474FF00000704700BF53B94AB984
:1009B800002908BF00281CBF4FF0FF314FF0FF305F
:1009C80000F072B9ADF1080C6DE904CE00F006F83C
:1009D800DDF804E0DDE9022304B070472DE9F047B3
:1009E800089E04468846002B4BD18A42154667D993
:1009F800B2FA82F24AB1C2F1200701FA02F320FAF0
:100A080007F7954047EA030894404FEA154E230C30
:100A1800B8FBFEF71FFA85FC0EFB178843EA08436C
:100A280007FB0CF1994209D9EB1807F1FF3080F068
:100A38001B81994240F21881023F2B445B1AA4B2F1
:100A4800B3FBFEF00EFB103344EA034400FB0CFC3E
:100A5800A44509D92C1900F1FF3380F00781A4457A
:100A680040F2048102382C4440EA0740A4EB0C040D
:100A780000271EB1D4400023C6E900433946BDE82B
:100A8800F0878B4209D9002E00F0EB800027C6E9D9
:100A9800000138463946BDE8F087B3FA83F7002FDE
:100AA80047D18B4202D3824200F2FA80841A61EB6A
:100AB800030301209846002EE0D0C6E90048DDE790
:100AC80002B9FFDEB2FA82F2002A40F08F80491B99
:100AD8004FEA154E1FFA85F80127B1FBFEFC230CDF
:100AE8000EFB1C1143EA014308FB0CF1994207D99C
:100AF800EB180CF1FF3002D2994200F2CD80844607
:100B0800591AA3B2B1FBFEF00EFB101443EA0444D9
:100B180008FB00F8A04507D92C1900F1FF3302D2D1
:100B2800A04500F2B6801846A4EB080440EA0C4041
:100B38009FE7C7F1200CBB4022FA0CFE4EEA030ED9
:100B480001FA07F420FA0CF521FA0CF34FEA1E48D3
:100B58002543B3FBF8F92C0C08FB19331FFA8EFA5E
:100B680044EA034309FB0AF49C4202FA07F200FA3A
:100B780007F10BD91EEB030309F1FF3080F08780E2
:100B88009C4240F28480A9F1020973441B1BADB258
:100B9800B3FBF8F008FB103345EA034400FB0AFAFC
:100BA800A24508D91EEB040400F1FF336BD2A2451D
:100BB80069D90238744440EA0940A0FB0289A4EBD1
:100BC8000A044C45C2464B4654D351D0002E69D036
:100BD800B1EB0A0564EB030404FA0CFCFD40FC408D
:100BE8004CEA0505C6E90054002747E7C2F120038F
:100BF80020FA03F7954001FA02F021FA03F34FEACD
:100C0800154E3843010CB3FBFEF71FFA85F80EFBAF
:100C1800173341EA034107FB08F38B4204FA02F455
:100C280007D9691807F1FF3C2FD28B422DD9023F13
:100C38002944CB1A81B2B3FBFEF00EFB103341EA14
:100C4800034100FB08F38B4207D9691800F1FF3C08
:100C580017D28B4215D902382944C91A40EA0747E6
:100C68003BE73746304609E70746E7E61846FBE61E
:100C78004145ABD2B8EB020A69EB0E0201381346C4
:100C8800A4E76046E9E7184695E76746D1E7814655
:100C98007CE702382C4447E7ACF1020C2B442FE7E1
:100CA800384608E73746E9E6704700BF10B50446FE
:100CB8000E4B18784FF47A73B3FBF0F30C4A1068B4
:100CC800B0FBF3F000F0D2F868B90F2C01D901207D
:100CD8000AE0002221464FF0FF3000F069F8034B8C
:100CE8005C60002000E0012010BD00BF0000002073
:100CF8001000002008B50B4B1A6842F400721A6005
:100D08001A6842F480621A601A6842F480721A60A3
:100D1800032000F02FF80020FFF7C8FF01F0DEFCE9
:100D2800002008BD003C0240034A1168034B1B78B1
:100D38000B441360704700BF3800002000000020FB
:100D4800014B1868704700BF3800002038B50446CA
:100D5800FFF7F6FF0546B4F1FF3F02D0044B1B78BE
:100D68001C44FFF7EDFF401BA042FAD338BD00BF7B
:100D78000000002010B50446C31E042B0FD80A4AF1
:100D8800D36823F4E0631B041B0C240204F4E0641E
:100D9800234343F0BF6343F40033D36010BD922173
:100DA800024801F099FCEAE700ED00E03828000865
:100DB80070B505460C4616460F2A25D80F2C28D89C
:100DC8001B4BDB68C3F30223C3F10702042A28BFC5
:100DD8000422191D062921D9033B4FF0FF3101FADE
:100DE80002F224EA02049C4001FA03F326EA03060D
:100DF8003443002D14DB2401E4B205F1604505F508
:100E0800614585F8004370BDAA210A4801F064FCD9
:100E1800D4E7AB21074801F05FFCD1E70023DCE70A
:100E280005F00F052401E4B2034B5C55EBE700BF66
:100E380000ED00E03828000814ED00E010B5041EAD
:100E48000ADB002C07DB04F01F026409012393402E
:100E5800044A42F8243010BDBE21034801F03CFC8E
:100E6800EFE700BF00E100E0382800080138B0F1E2
:100E7800807F0AD2064B5860064AF02182F8231078
:100E88000020986007221A6070470120704700BF51
:100E980010E000E000ED00E02DE9F04383B080466B
:100EA8000E46B44B984223D003F5806398421FD076
:100EB80003F5806398421BD003F58063984217D0EE
:100EC80003F58063984213D003F5806398420FD0EE
:100ED80003F5806398420BD003F58063984207D0EE
:100EE80003F58063984203D0B321A34801F0F4FBD3
:100EF80033689AB212B11B0C1B041BB1B4219E4873
:100F080001F0EAFB7368012B1ED9112B1CD0022BB0
:100F18001AD0122B18D0994A934215D002F5801294
:100F2800934211D002F5801293420DD0A2F5F81227
:100F3800934209D002F58012934205D002F580123F
:100F4800934201D0032B04D1B368022B06D80024A6
:100F580045E0B521884801F0BFFBF5E7B621864892
:100F680001F0BAFBF3E7C821834801F0B5FB4AE07A
:100F7800072300E000238B4003430232804941F8F5
:100F88002230804B1A68FB4303EA0201706810F4B0
:100F9800803F01D047EA02017A4A1160526803EAA9
:100FA8000201706810F4003F01D047EA0201754A57
:100FB8005160926803EA0201706810F4801F01D042
:100FC80047EA02016F4A9160D2681340716811F4D0
:100FD800001F01D047EA02036A4AD36001340F2C8C
:100FE80000F2C5800125A54037682F40BD42F5D1E4
:100FF80073685A1E012A03D9112B01D0122B19D15B
:10100800F368032BAFD8D8F80820610003238B407E
:1010180022EA0302F3688B401343C8F80830D8F873
:10102800042022EA05027368C3F30015A54015439E
:10103800C8F80450D8F80C204FEA4409032505FAEB
:1010480009F5ED432A40B36803FA09F31343C8F8D6
:101058000C307368022B01D0122B31D13369FBB1EC
:10106800092B1DD0012B1BD0022B19D0032B17D015
:10107800042B15D0052B13D0062B11D0072B0FD01E
:10108800082B0DD00A2B0BD00B2B09D00C2B07D01B
:101098000D2B05D00F2B03D0E021374801F01CFBA6
:1010A800E208083258F8220004F0070399000F23D9
:1010B8008B4020EA030033698B40034348F8223011
:1010C800D8F800301D40736803F0030303FA09F3EE
:1010D8001D43C8F80050736813F0805F3FF47EAF7B
:1010E80000230193284B5A6C42F480425A645B6C8B
:1010F80003F480430193019BA208911C204B53F8F1
:10110800210004F0030399000F238B4020EA030019
:10111800184B98453FF42EAF03F5806398451AD0D5
:1011280003F58063984518D003F58063984516D079
:1011380003F58063984514D003F58063984512D071
:1011480003F58063984510D003F5806398453FF414
:101158000FAF08230FE701230DE702230BE7032353
:1011680009E7042307E7052305E7062303E703B098
:10117800BDE8F08300000240742800080000111048
:1011880000380140003C01400038024038B50546AF
:101198000C4621B12B691C4207D1002038BD4FF401
:1011A800BF71034801F098FAF4E70120F6E700BFA1
:1011B8007428000870B5064615460C4629B1012D5D
:1011C80009D875B92404B46170BD40F29F1106486E
:1011D80001F082FAF3E74FF4D071034801F07CFA8A
:1011E800EFE7B461F0E700BF7428000808B5054BC5
:1011F8005B69034200D108BD024B586101F0F8F960
:10120800F9E700BF003C0140002800F0648270B597
:1012180082B0044603680F2B39D8236813F0010FF6
:101228004DD063682BB1B3F5803F02D0B3F5A02F42
:1012380032D1A54B9B6803F00C03042B36D0A24B8C
:101248009B6803F00C03082B2BD06368B3F5803F31
:101258005FD0B3F5A02F62D09B4B1A6822F480327E
:101268001A601A6822F480221A606368002B60D022
:10127800FFF766FD0546944B1B6813F4003F1ED12B
:10128800FFF75EFD401B6428F5D9032028E2E8211A
:101298008E4801F021FAC0E7ED218C4801F01CFAD4
:1012A800C7E7894B5B6813F4800FCED0864B1B6869
:1012B80013F4003F03D06368002B00F00E8223680C
:1012C80013F0020F67D0E368012B41D823691F2B65
:1012D80044D87D4B9B6813F00C0F4AD07A4B9B681F
:1012E80003F00C03082B3FD0E368002B77D0784B32
:1012F80001221A60FFF724FD0546734B1B6813F0A3
:10130800020F63D1FFF71CFD401B0228F5D903200B
:10131800E6E16D4A136843F480331360A5E76A4B2E
:101328001A6842F480221A601A6842F480321A60FD
:101338009BE7FFF705FD0546634B1B6813F4003F69
:10134800BDD0FFF7FDFC401B6428F5D90320C7E199
:1013580040F21F115D4801F0BFF9B7E74FF49071F3
:101368005A4801F0B9F9B4E7574B5B6813F4800F9A
:10137800BAD1554B1B6813F0020F04D0E368012B58
:1013880001D00120ACE1504A136823F0F803216929
:1013980043EAC1031360236813F0080F49D0636957
:1013A800012B2ED8636993B34A4B01221A60FFF7C9
:1013B800C7FC0546444B5B6F13F0020F39D1FFF7AA
:1013C800BFFC401B0228F5D9032089E13E4A136877
:1013D80023F0F803216943EAC1031360DBE73C4BC0
:1013E80000221A60FFF7ACFC0546374B1B6813F068
:1013F800020FD0D0FFF7A4FC401B0228F5D9032028
:101408006EE14FF4B071314801F066F9CAE7314B2B
:1014180000221A60FFF794FC05462B4B5B6F13F014
:10142800020F06D0FFF78CFC401B0228F5D90320D9
:1014380056E1236813F0040F00F08780A368012B9E
:1014480001D9052B38D1204B1B6C13F0805F39D1A3
:10145800002301931C4B1A6C42F080521A641B6CD7
:1014680003F080530193019B01251B4B1B6813F468
:10147800807F33D0A368012B44D0052B48D0124B72
:101488001A6F22F001021A671A6F22F004021A6713
:10149800A368002B46D0FFF753FC06460A4B1B6F88
:1014A80013F0020F4FD1FFF74BFC801B41F288333A
:1014B8009842F3D9032013E14FF4C671034801F0B1
:1014C8000BF9C0E70025D0E700380240B028000833
:1014D80000004742800E474200700040834A13686C
:1014E80043F480731360FFF72BFC06467F4B1B68A1
:1014F80013F4807FBED1FFF723FC801B0228F5D9A7
:101508000320EDE07A4A136F43F001031367BFE746
:10151800774B1A6F42F004021A671A6F42F0010201
:101528001A67B5E7FFF70CFC0646714B1B6F13F003
:10153800020F08D0FFF704FC801B41F28833984261
:10154800F3D90320CCE0002D3BD1A369022B3ED870
:10155800A369002B00F0C380654A926802F00C0270
:10156800082A00F09080022B79D1E36913B1B3F512
:10157800800F32D1236A3F2B35D8636A323BB3F5EB
:10158800BF7F36D8A36A022B05D0042B03D0062BC5
:1015980001D0082B33D1E36A023B0D2B35D8554BCC
:1015A80000221A60FFF7CCFB0546514B1B6813F06D
:1015B800007F30D0FFF7C4FB401B0228F5D9032079
:1015C8008EE04B4A136C23F080531364BDE740F25E
:1015D800CF11494801F080F8BAE74FF4EC7146485A
:1015E80001F07AF8C6E740F2D911434801F074F8DF
:1015F800C3E74FF4ED71404801F06EF8C2E740F2DE
:10160800DB113D4801F068F8C5E74FF4EE713A4840
:1016180001F062F8C3E7E369226A1343626A43EAA6
:101628008213A26A5208013A43EA0243E26A43EA91
:1016380002632F4A53602F4B01221A60FFF780FB89
:1016480004462B4B1B6813F0007F06D1FFF778FB8D
:10165800001B0228F5D9032042E0002040E0254B7A
:1016680000221A60FFF76CFB0446214B1B6813F03D
:10167800007F06D0FFF764FB001B0228F5D9032082
:101688002EE000202CE0012B2CD0194B9B6803F492
:101698008001E269914201D0012021E003F03F027C
:1016A800216A8A4201D001201AE0616A47F6C072B5
:1016B8001A408A4201D0012012E003F44032A16AA4
:1016C8008A4201D001200BE003F07063E26A934282
:1016D8000AD0012004E001207047012000E000202A
:1016E80002B070BD0120FBE70020F9E70070004060
:1016F8000038024060004742B0280008324B9B681F
:1017080003F00C03042B5CD0082B01D02F48704742
:101718002DE9F04B2C4B5A6802F03F025B6813F43A
:10172800800F2BD0284B5B68C3F388131E46002715
:101738005C010025E41A65EB0705A90141EA9461FB
:10174800A001001B61EB0501CB0043EA5073C40004
:10175800A01943EB07014B0243EAD0534402204649
:1017680019460023FFF722F9174B5B68C3F30143BF
:1017780001335B00B0FBF3F0BDE8F08B124B5B6804
:10178800C3F388131E4600275C010025E41A65EBA5
:101798000705A90141EA9461A001001B61EB05015D
:1017A800CB0043EA5073C400A01943EB07018B0236
:1017B80043EA90538402204619460023FFF7F6F8BF
:1017C800D2E70348704700BF003802400024F40005
:1017D80000127A00002800F0FA8070B504460D4621
:1017E8000368013B0E2B11D8072D15D87A4B1B68BF
:1017F80003F00F03AB4215D2EBB2774A13701368AC
:1018080003F00F03AB420DD0012070BD40F251210F
:10181800724800F061FFE7E740F252216F4800F09C
:101828005BFFE3E7236813F0020F29D013F0040FDE
:1018380004D06B4A936843F4E0539360236813F031
:10184800080F04D0664A936843F460439360A36822
:101858007BB1802B0DD0902B0BD0A02B09D0B02BB7
:1018680007D0C02B05D0D02B03D0E02B01D0F02B14
:1018780033D15B4A936823F0F003A1680B4393606C
:10188800236813F0010F42D06368032B2BD86368D9
:10189800012B2ED09A1E012A32D9514A126812F011
:1018A800020F00F096804E498A6822F00302134323
:1018B8008B60FFF745FA0646494B9B6803F00C031B
:1018C8006268B3EB820F22D0FFF73AFA801B41F22D
:1018D80088339842F0D9032097E740F275213F48B2
:1018E80000F0FAFEC5E74FF41F713C4800F0F4FE23
:1018F800CDE73B4A126812F4003FD4D1012084E7B7
:10190800374A126812F0007FCDD101207DE7324BB3
:101918001B6803F00F03AB4209D9EAB22E4B1A70C9
:101928001B6803F00F03AB4201D001206DE7236869
:1019380013F0040F14D0E3685BB1B3F5805F08D0EF
:10194800B3F5A05F05D0B3F5C05F02D0B3F5E05F93
:1019580031D1234A936823F4E053E1680B43936041
:10196800236813F0080F15D023695BB1B3F5805FC6
:1019780008D0B3F5A05F05D0B3F5C05F02D0B3F5CA
:10198800E05F1ED1164A936823F46043216943EA55
:10199800C1039360FFF7B2FE114B9B68C3F30313B7
:1019A800104AD35CD840104B1860104B1868FFF7EA
:1019B8007DF9002029E740F2BA21084800F08CFEA2
:1019C800C7E740F2C121054800F086FEDAE70120AA
:1019D8007047012019E700BF003C0240B02800080A
:1019E80000380240202800081000002004000020D1
:1019F80070B5012202214D48FFF7DCFB0120FFF7FB
:101A0800A5F900224FF480614948FFF7D3FB02E0B3
:101A18000120FFF79BF94FF480614548FFF7B6FBBB
:101A28000128F5D0424C01224FF480612046FFF78F
:101A3800C1FB4FF480612046FFF7A8FB012809D0BD
:101A480000224FF480612046FFF7B4FB0120FFF726
:101A58007DF970BD102000F097F8354C00224FF446
:101A680080612046FFF7A6FB4FF480612046FFF710
:101A78008DFBC0B94FF400712D48FFF787FB012893
:101A88001BD000F06FF804464FF400712848FFF7A8
:101A98007DFBA8B900F066F8001B4CF25033984261
:101AA800F2D901250DE000224FF480612046FFF7AE
:101AB80081FB0120FFF74AF9CBE7FFF747F9C8E7B1
:101AC80000255DBB00F04EF806464FF4007118483B
:101AD800FFF75CFB012807D100F044F8001B4CF22B
:101AE80050339842F1D90125E5B900F03BF8801B45
:101AF80007EE900AF8EE677ADFED0E6A87EEA67AAF
:101B0800FDEEC77A17EE900A031FB3F5F87FA0D24F
:101B180000F0C0FA0A2000F037F89AE70120FFF732
:101B280015F996E70120FFF711F992E70000024046
:101B38000010024000006842084AD36843F08073EE
:101B4800D360074B1A6842F001021A6000225A60FB
:101B58005A6800BF00BF5868801A7047F0ED00E06F
:101B6800001000E0054B5868054B1B68054AA2FBAE
:101B780003239B0CB0FBF3F0704700BF001000E09C
:101B88001000002083DE1B43064B1B68064AA2FB9D
:101B980003239B0C03FB00F0044B5B689842FBD8C3
:101BA800704700BF1000002083DE1B43001000E0D8
:101BB80070B5012202215A48FFF7FCFA0120FFF70D
:101BC800C5F800224FF480615648FFF7F3FA02E0A7
:101BD8000120FFF7BBF84FF480615248FFF7D6FAAF
:101BE8000128F5D04F4C01224FF480612046FFF7C1
:101BF800E1FA4FF480612046FFF7C8FA012809D0BE
:101C080000224FF480612046FFF7D4FA0120FFF745
:101C18009DF870BD1020FFF7B7FF424C00224FF42B
:101C280080612046FFF7C6FA4FF480612046FFF72F
:101C3800ADFAC0B94FF400713A48FFF7A7FA012886
:101C48001BD0FFF78FFF04464FF400713548FFF7AC
:101C58009DFAA8B9FFF786FF001B4CF25033984253
:101C6800F2D901250DE000224FF480612046FFF7EC
:101C7800A1FA0120FFF76AF8CBE7FFF767F8C8E792
:101C880000259DBBFFF76EFF06464FF400712548FF
:101C9800FFF77CFA012807D1FFF764FF001B4CF21D
:101CA80050339842F1D9012525BBFFF75BFF801B14
:101CB80007EE900AF8EE677A17EE900AFEF7E4FB53
:101CC80015A3D3E90023FEF761FDFEF747FE04469E
:101CD80041F28733984203D880B96420FFF754FF54
:101CE800002D96D0642000F069F992E70120FFF7F3
:101CF8002DF88EE70120FFF729F8D6E70A20FFF72D
:101D080025F8094880FB0430E417C4EBA00000F074
:101D180055F9E2E7AFF300803333333333331740F9
:101D28000000024000100240676666662DE9F04F29
:101D38008DB000240794089409940A940B94019494
:101D4800884B1A6B42F010021A631A6B02F01002E9
:101D58000192019A02941A6B42F004021A631A6BF8
:101D680002F004020292029A03941A6B42F0800273
:101D78001A631A6B02F080020392039A04941A6B96
:101D880042F001021A631A6B02F001020492049AEB
:101D980005941A6B42F002021A631A6B02F00202EF
:101DA8000592059A06941A6B42F008021A631B6B97
:101DB80003F008030693069B22464FF481616A48A4
:101DC800FFF7F8F9012211466848FFF7F3F92246B0
:101DD8004FF210016648FFF7EDF922464FF4807183
:101DE8006448FFF7E7F94FF48163079301260896E3
:101DF80009940A9407A95C48FFF74EF807960896D5
:101E080009940A9407A95948FFF746F80823079345
:101E18000225089509940A944FF00509CDF82C90ED
:101E280007A95248FFF738F80796534B08930994C7
:101E3800524F07A93846FFF72FF810230793089544
:101E480009940A944FF00608CDF82C8007A9384663
:101E5800FFF722F8E0230793089509940A94CDF830
:101E68002C9007A93846FFF717F84FF0040ACDF869
:101E78001CA00894099407A93E48FFF70DF84FF4F1
:101E8800007BCDF81CB00894099407A93648FFF7E1
:101E980003F84FF480630793089509940A94CDF8E2
:101EA8002C9007A93348FEF7F7FF4FF2100307936A
:101EB800089609940A9407A92D48FEF7EDFF4FF4F8
:101EC800A4530793089509940A94CDF82C8007A980
:101ED8002648FEF7E1FFCDF81CB00894099407A93D
:101EE8003846FEF7D9FF4FF4E05307930895099455
:101EF8000A940A230B9307A93846FEF7CDFF20233F
:101F080007930894099407A91948FEF7C5FF4FF4E9
:101F1800107307931223089309960A94CDF82CA0FE
:101F280007A91448FEF7B8FF4FF480730793089683
:101F380009940A9407A90F48FEF7AEFF0795104BBE
:101F48000893099407A90848FEF7A6FF22462146E8
:101F58004046FEF72DFF4046FEF770FF0DB0BDE886
:101F6800F08F00BF00380240001002400008024015
:101F7800000C024000040240000031100000024042
:101F8800000012100A2318460138FDD870471423A0
:101F980018460138FDD87047642809DC322809DC66
:101FA800142809DC002801DC00207047B72070479E
:101FB800002070473D2070477A2070472DE9F8438C
:101FC800FFF7EAFF0646002751E0314D4FF48073D2
:101FD800AB61FFF7D7FF4FF08073AB61FFF7D7FF17
:101FE800013C002C10DB49FA04F313F0010FECD08C
:101FF800274D4FF48073AB61FFF7C9FF4FF0807333
:10200800AB61FFF7BFFFEBE707240BE0204D4FF470
:102018008073AB61FFF7B6FF4FF08073AB61FFF7DA
:10202800B6FF013C002C10DB48FA04F313F0010F53
:10203800ECD0174D4FF48073AB61FFF7A8FF4FF05A
:102048008073AB61FFF79EFFEBE707240BE0104DB1
:102058004FF48073AB61FFF795FF4FF08073AB616E
:10206800FFF795FF013C002CF1DA013601373C2FD0
:1020780007DC5FFA86F86FEA06095FFA89F9072430
:10208800AFE74FF4FA70FEF761FEBDE8F88300BFD2
:1020980000040240F8B50646002541E0BC4F4FF465
:1020A8008073BB61FFF76EFF4FF08073BB61FFF772
:1020B8006EFF013C002CF1DA07240DE00724F9E754
:1020C800B34F4FF48073BB61FFF75CFF4FF0807331
:1020D800BB61FFF75CFF013C002C10DBFF232341B1
:1020E80013F0010FECD0AA4F4FF48073BB61FFF7D8
:1020F8004EFF4FF08073BB61FFF744FFEBE7072407
:102108000BE0A34F4FF48073BB61FFF73BFF4FF029
:102118008073BB61FFF73BFF013C002CF1DA01350E
:10212800B54280F22C829B4B83FB05235A19EB178F
:10213800C3EBA203C3EBC303EB1ABFD0012B2BD015
:10214800022B7CD0032B00F0CD80042B00F00C81F7
:10215800052B00F0418107248CE18D4F4FF48073EB
:10216800BB61FFF70FFF4FF08073BB61FFF70FFFF5
:10217800013C002C12DB4523234113F0010FECD066
:10218800834F4FF48073BB61FFF701FF4FF08073FB
:10219800BB61FFF7F7FEEBE70724EAE707240BE04C
:1021A8007B4F4FF48073BB61FFF7ECFE4FF08073F9
:1021B800BB61FFF7ECFE013C002C10DBFF23234141
:1021C80013F0010FECD0724F4FF48073BB61FFF72F
:1021D800DEFE4FF08073BB61FFF7D4FEEBE7072408
:1021E8000BE06B4F4FF48073BB61FFF7CBFE4FF0F2
:1021F8008073BB61FFF7CBFE013C002CF1DA8EE760
:10220800634F4FF48073BB61FFF7BCFE4FF08073E0
:10221800BB61FFF7BCFE013C002C12DBFF2323410E
:1022280013F0010FECD05A4F4FF48073BB61FFF7E6
:10223800AEFE4FF08073BB61FFF7A4FEEBE7072407
:10224800EAE707240BE0524F4FF48073BB61FFF7B6
:1022580099FE4FF08073BB61FFF799FE013C002C9B
:1022680010DBFF23234113F0010FECD0484F4FF44C
:102278008073BB61FFF78BFE4FF08073BB61FFF784
:1022880081FEEBE70724002CFFF649AF404F4FF4DF
:102298008073BB61FFF776FE4FF08073BB61FFF779
:1022A80076FE013CEFE73A4F4FF48073BB61FFF7CE
:1022B80069FE4FF08073BB61FFF769FE013C002C9B
:1022C80012DBFF23234113F0010FECD0304F4FF402
:1022D8008073BB61FFF75BFE4FF08073BB61FFF754
:1022E80051FEEBE70724EAE707240BE0284F4FF4F9
:1022F8008073BB61FFF746FE4FF08073BB61FFF749
:1023080046FE013C002CF1DA07240BE0204F4FF485
:102318008073BB61FFF736FE4FF08073BB61FFF738
:1023280036FE013C002CF1DAF9E6194F4FF48073C0
:10233800BB61FFF727FE4FF08073BB61FFF727FEF5
:10234800013C002C12DBBF23234113F0010FECD01A
:102358000F4F4FF48073BB61FFF719FE4FF0807386
:10236800BB61FFF70FFEEBE70724EAE707240BE062
:10237800074F4FF48073BB61FFF704FE4FF0807383
:10238800BB61FFF704FE013C002CF1DA07240FE0E3
:1023980000040240932449927B4F4FF48073BB6141
:1023A800FFF7F0FD4FF08073BB61FFF7F0FD013CD4
:1023B800002CFFF6B4AEFF23234113F0010FEBD03E
:1023C800714F4FF48073BB61FFF7E1FD4FF08073ED
:1023D800BB61FFF7D7FDEAE70724002C0CDB6A4F47
:1023E8004FF48073BB61FFF7CDFD4FF08073BB6185
:1023F800FFF7CDFD013CF0E70724002C0CDB624F12
:102408004FF48073BB61FFF7BDFD4FF08073BB6174
:10241800FFF7BDFD013CF0E707240BE05A4F4FF4EE
:102428008073BB61FFF7AEFD4FF08073BB61FFF7B0
:10243800AEFD013C002CFFF672AEFF23234113F0E2
:10244800010FEBD0504F4FF48073BB61FFF79FFD36
:102458004FF08073BB61FFF795FDEAE74A4F4FF4F1
:102468008073BB61FFF78EFD4FF08073BB61FFF790
:102478008EFD013C002C10DB2B23234113F0010FB0
:10248800ECD0414F4FF48073BB61FFF780FD4FF0F4
:102498008073BB61FFF776FDEBE707240BE03A4F4B
:1024A8004FF48073BB61FFF76DFD4FF08073BB6124
:1024B800FFF76DFD013C002C10DB8A23234113F04C
:1024C800010FECD0304F4FF48073BB61FFF75FFD15
:1024D8004FF08073BB61FFF755FDEBE707240BE076
:1024E800294F4FF48073BB61FFF74CFD4FF08073A9
:1024F800BB61FFF74CFD013C002CFFF610AEE22358
:10250800234113F0010FEBD01F4F4FF48073BB61D1
:10251800FFF73DFD4FF08073BB61FFF733FDEAE73E
:10252800194D4FF48073AB61FFF72CFD4FF08073AA
:10253800AB61FFF72CFD013C002CF1DA07240BE01E
:10254800114D4FF48073AB61FFF71CFD4FF08073A2
:10255800AB61FFF71CFD013C002CF1DA07240BE00E
:10256800094D4FF48073AB61FFF70CFD4FF080739A
:10257800AB61FFF70CFD013C002CF1DA01363C2E73
:1025880001DC0724D8E7F8BD0004024008B50121A2
:102598001448FEF7FBFD28B9134A1368B3FA83F30E
:1025A8005B09136001210F48FEF7F0FD01280BD0ED
:1025B8000E4B1B683BB90D4A5368B3FA83F35B09AA
:1025C80053600123136008BD074B1B68002BEFD134
:1025D800064A1368B3FA83F35B091360024B0122BE
:1025E8001A60E5E7000002403000002008000020E3
:1025F80008B5FEF7A5FB064B5B68C01A312800D862
:1026080008BDFEF79DFB024B5860FFF7BFFFF7E7D9
:102618003000002030B595B03022002108A800F025
:10262800E7F800240394049405940694079401940D
:102638001B4B1A6C42F080521A641B6C03F08053D7
:102648000193019B0294174B1A6842F480421A6066
:102658001B6803F480430293029B0225089501231B
:102668000B9310230C930E950F940823109360235B
:10267800119312950723139308A8FEF7C5FD0F239E
:102688000393049505944FF4A05306934FF4805395
:102698000793032103A8FFF79DF815B030BD00BFCD
:1026A800003802400070004008B5FEF723FBFFF732
:1026B800B1FFFFF73BFBFFF73FFA04E00A20FEF704
:1026C80045FBFFF795F9034B5B68002BF6D0FFF746
:1026D8006FFAF8E7080000207047000082B0002178
:1026E80000910B4B5A6C42F480425A645A6C02F4C3
:1026F80080420092009A01911A6C42F080521A644A
:102708001B6C03F080530193019B02B0704700BF1C
:10271800003802407047FEE7FEE7FEE7FEE7704735
:102728007047704708B5FEF7FFFA08BD08B50120E5
:10273800FEF75CFD08BD0000054BD3F8882042F485
:102748007002C3F888204FF000629A60704700BF9B
:1027580000ED00E0DFF834D0002103E00C4B5B58BB
:10276800435004310B480C4B42189A42F6D30B4A9B
:1027780002E0002342F8043B094B9A42F9D3FFF7E1
:10278800DBFF00F011F8FFF78FFF70470000022011
:10279800F828000800000020140000201400002081
:1027A8003C000020FEE7000070B50D4E0D4CA41B48
:1027B800A4100025A54209D10B4E0C4C00F020F8BE
:1027C800A41BA4100025A54205D170BD56F82530DC
:1027D80098470135EEE756F8253098470135F2E776
:1027E800F0280008F0280008F0280008F42800085D
:1027F80002440346934200D1704703F8011BF9E7EE
:10280800F8B500BFF8BC08BC9E467047F8B500BFD5
:08281800F8BC08BC9E467047A5
:102820000000000000000000010203040607080980
:1028300000000000010203042E2E2F447269766509
:1028400072732F53544D3332463478785F48414C7D
:102850005F4472697665722F5372632F73746D33A0
:1028600032663478785F68616C5F636F7274657824
:102870002E6300002E2E2F447269766572732F53DB
:10288000544D3332463478785F48414C5F44726926
:102890007665722F5372632F73746D33326634789A
:1028A000785F68616C5F6770696F2E63000000007D
:1028B0002E2E2F447269766572732F53544D333226
:1028C000463478785F48414C5F4472697665722F70
:1028D0005372632F73746D3332663478785F686136
:0828E0006C5F7263632E63005C
:0828E800FCE0FF7F010000008D
:0428F000AD0100082E
:0428F400890100084E
:1028F80001000000100000000100000001000000BD
:042908000024F400B3
:040000050800275D6B
:00000001FF
